:020000040800F2
:1000000000500020697200084D4300085343000867
:10001000594300085F4300086543000800000000E2
:100020000000000000000000000000006B4300081A
:100030007743000800000000834300088F43000856
:10004000B1720008B1720008B1720008B172000804
:10005000B1720008B1720008B1720008B1720008F4
:10006000B1720008B1720008B1720008B1720008E4
:10007000B17200089D430008B1430008B172000846
:10008000B1720008B1720008B1720008B1720008C4
:10009000B1720008B1720008B1720008B1720008B4
:1000A000B1720008B1720008B1720008B1720008A4
:1000B00049250008B1720008B1720008B172000849
:1000C000B1720008B1720008B1720008B172000884
:1000D000C5430008B1720008B1720008B17200088F
:1000E000D9430008B1720008B17200080000000096
:1000F0000000000000000000000000000000000000
:0C01000000000000000000005FF808F1A3
:10010C0010F8012B11F8013B012A28BF9A42F7D0B5
:10011C00D01A7047034613F8012B002AFBD1181A8A
:10012C00013870470348044B834202D0034B03B1A0
:10013C001847704794000020940000200000000035
:10014C000548064B1B1AD90F01EBA301491002D02D
:10015C00034B03B118477047940000209400002013
:10016C000000000010B5064C237843B9FFF7DAFF06
:10017C00044B13B10448AFF300800123237010BD6E
:10018C009800002000000000DC7C000808B5054B3E
:10019C001BB105490548AFF30080BDE80840FFF7E7
:1001AC00CFBF00BF000000009C000020DC7C0008DA
:1001BC0080B58EB008AF224B1B68224A12681146DC
:1001CC00184601F0ADFC3B4600221A605A609A605A
:1001DC00DA60C3F80F2001237B610CE07B69013BE3
:1001EC0019497A690A44127818333B4403F8182CDD
:1001FC007B6901337B617B69122BEFDD0023BB74C0
:10020C0000230793B6230693042305930123049339
:10021C0002230393022302930123019300230093EF
:10022C00002300220221002001F023FB3B4618464C
:10023C0001F05AFC00F00AF800BF1837BD4680BD2B
:10024C0000000020B40000207802002080B500AF30
:10025C001349144807F098F80346002B14BF0123E8
:10026C000023DAB2104B1A700F4B1A780F4B1B7815
:10027C009A420ED00C4B1B78002B05D0002001F0BD
:10028C00D3FF01F0BDFF04E0642001F0CDFF01F0CD
:10029C009FFF054B1A78054B1A7000BF80BD00BF3D
:1002AC00F47C0008C0000020D3000020D400002003
:1002BC0080B592B008AF214B1B68214A12681146D9
:1002CC00184601F02DFC3B1D1E220021184607F09C
:1002DC0053F813237B620CE07B6A133B19497A6A4F
:1002EC000A44127828333B4403F8242C7B6A0133EC
:1002FC007B627B6A2F2BEFDD002387F821303C23B8
:10030C0007934FF48C7306930023059305230493F2
:10031C0001230393012302930123019300230093F0
:10032C00002300220121002001F0A3FA3B1D1846F6
:10033C0001F0DAFB00BF2837BD4680BD0400002069
:10034C00B40000207802002080B5B6B008AF07F1E9
:10035C0064034C220021184607F00EF8804B7B6694
:10036C00804BBB66804BFB66804B3B67804B7B674F
:10037C00804BBB67804BFB67804BC7F88030804B52
:10038C00C7F884307F4BC7F888307F4BC7F88C3068
:10039C007E4BC7F890307E4BC7F894307D4BC7F836
:1003AC0098307D4BC7F89C307C4BC7F8A0307C4B09
:1003BC00C7F8A4307B4BC7F8A83007F118034C22C0
:1003CC000021184606F0D8FF0A23BB613E23FB61CF
:1003DC0072233B62A6237B62DA23BB624FF48773E2
:1003EC00FB624FF4A1733B634FF4BB737B634FF41D
:1003FC00D573BB634FF4EF73FB6340F212233B6482
:10040C0040F246237B6440F27A23BB6440F2AE2375
:10041C00FB6440F2E2233B6540F216337B6540F20D
:10042C004A33BB654FF46173FB650023C7F8B430E6
:10043C0018E05D4AD7F8B43013441B78002B06D073
:10044C003A1DD7F8B430134401221A7005E03A1D56
:10045C00D7F8B430134400221A70D7F8B4300133F3
:10046C00C7F8B430D7F8B430122BE2DD0023C7F84C
:10047C00B0306CE0D7F8B0300133B8333B4413F8EC
:10048C00B43C012B2FD1494B1B68494A12681146C9
:10049C00184601F045FBD7F8B0309B00B8333B440D
:1004AC0053F8A03C9BB20793962306930023059325
:1004BC000523049301230393002302930123019347
:1004CC0000230093002300220021002001F0D1F929
:1004DC00D7F8B0309B00B8333B4453F8543C184623
:1004EC0001F002FB2EE0334B1B68314A12681146B7
:1004FC00184601F015FBD7F8B0309B00B8333B44DD
:10050C0053F8A03C9BB207939623069300230593C4
:10051C0005230493012303930023029301230193E6
:10052C0000230093002300220021002001F0A1F9F8
:10053C00D7F8B0309B00B8333B4453F8543C1846C2
:10054C0001F0D2FAD7F8B0300133C7F8B030D7F891
:10055C00B030112B8EDD00BF00BFB837BD4680BD5B
:10056C00407D0008487D0008507D0008587D00083B
:10057C005C7D0008647D00086C7D0008747D0008BB
:10058C007C7D0008807D0008887D0008907D000837
:10059C00987D0008A07D0008A87D0008AC7D0008AF
:1005AC00B07D0008B47D0008B802002008000020CF
:1005BC00B4000020B8000020F0B5BFB008AF754BF8
:1005CC001B78002B00F0E180734B1B680133724ADF
:1005DC001360714B1B688D2B61D96E4B00221A7006
:1005EC006E4B1B6819464FF47F4001F099FAA0231B
:1005FC0007934FF4A37306930423059301230493E9
:10060C0000230393002302930123019300230093FF
:10061C00002300220021002001F02BF9604B07F190
:10062C003C041D460FCD0FC40FCD0FC40FCD0FC40E
:10063C0095E8070084E8070007F13C03184601F031
:10064C0053FA564B1B6819464FF47F0001F068FAB9
:10065C004FF4207307938A230693042305930123F5
:10066C00049300230393002302930123019300239B
:10067C000093002300220021002001F0FAF8494BDE
:10068C0007F1BC041D460FCD0FC495E8070003C449
:10069C00227007F1BC03184601F026FA75E03F4BB7
:1006AC001B6819464FF47F4001F03AFAA0230793D8
:1006BC004FF4A3730693042305930123049300239F
:1006CC00039300230293012301930023009300233F
:1006DC0000220021002001F0CCF8334B07F1080474
:1006EC001D460FCD0FC40FCD0FC40FCD0FC42B68FB
:1006FC001A46228002341B0C237007F1080318469B
:10070C0001F0F2F9254B1B681946284801F008FA4C
:10071C004FF4207307938A23069304230593012334
:10072C0004930023039300230293012301930023DA
:10073C000093002300220021002001F09AF81C4BAA
:10074C001B687B601B4B1B681B4A12681B490968A2
:10075C001B4800681B4C24681B4D2D6807F13C0698
:10076C00DFF868C0CDF818C0059504940390029189
:10077C00019200937B68164A8021304606F094FD66
:10078C0007F13C03184601F0AFF900BFDC37BD465A
:10079C00F0BD00BF10000020D8000020B4000020E5
:1007AC00D07D00080C7E0008287E000890909000F8
:1007BC0014000020180000201C0000202000002045
:1007CC0024000020280000202C00002030000020F5
:1007DC00B87D0008B0B590B008AF1E4B1B681E4A20
:1007EC0012681146184601F09BF93C2307934FF40D
:1007FC008C73069300230593052304930123039321
:10080C000123029301230193002300930023002270
:10081C000121002001F02DF83B46104A1C461546DC
:10082C000FCD0FC42B6823803B461846FFF772FC94
:10083C0002463B4613440A4A12680A49184606F017
:10084C0069FD3B46184601F04FF900BF2037BD4605
:10085C00B0BD00BF0C000020BC000020607E000872
:10086C00E40500205C7E000880B584B000AF034630
:10087C000A46FB8013467B717B79013BFB6025E0CC
:10088C00FA88FB6842FA03F303F00103002B05D04E
:10089C0001222021114804F0D0FD04E00022202187
:1008AC000E4804F0CAFD012210210C4804F0C5FDCD
:1008BC00052000F05DF800221021084804F0BDFD71
:1008CC00052000F055F8FB68013BFB60FB68002B32
:1008DC00D6DA00BF00BF1037BD4680BD000C01400A
:1008EC0080B582B000AF0346FB71002208210C4892
:1008FC0004F0A3FD0A2000F03BF8FB799BB2092120
:10090C001846FFF7B1FF01220821054804F095FDB8
:10091C000A2000F02DF800BF0837BD4680BD00BF8F
:10092C00000C014080B582B000AF0346FB71002281
:10093C0008210E4804F081FD0A2000F019F8FB791B
:10094C001BB243F480731BB29BB209211846FFF70C
:10095C008BFF01220821054804F06FFD0A2000F0EE
:10096C0007F800BF0837BD4680BD00BF000C014032
:10097C0080B586B000AF0346FB80154B9B687B614E
:10098C0005F060F90346134AA2FB03239B0CFA887B
:10099C0002FB03F33B610E4B5B680133FB6008E029
:1009AC000B4B9B68FA689A4203D27A69FB68D31A9C
:1009BC007B61074B9B687A69D31A23F07F433A69B2
:1009CC009A42EDD800BF00BF1837BD4680BD00BFAE
:1009DC0010E000E083DE1B4380B500AFFF20FFF783
:1009EC007FFF7720FFF79EFF0120FFF79BFF002082
:1009FC00FFF798FF0020FFF795FF1320FFF792FFFA
:100A0C00EF20FFF76DFF0820FFF78CFFFF20FFF7AB
:100A1C0067FF7720FFF786FF0120FFF783FF002099
:100A2C00FFF780FF0020FFF77DFF1020FFF77AFF14
:100A3C00C020FFF755FF7720FFF774FF0020FFF76A
:100A4C0071FF0920FFF76EFF0820FFF76BFFC22034
:100A5C00FFF746FF0120FFF765FF0220FFF762FF5B
:100A6C00C320FFF73DFF0220FFF75CFFCC20FFF710
:100A7C0037FF1020FFF756FFB020FFF731FF402063
:100A8C00FFF750FF1420FFF74DFF5920FFF74AFFE7
:100A9C001020FFF747FF1220FFF744FF0820FFF755
:100AAC0041FF0320FFF73EFF0920FFF73BFF052026
:100ABC00FFF738FF1E20FFF735FF0520FFF732FF49
:100ACC001420FFF72FFF1020FFF72CFF6820FFF7F3
:100ADC0029FF3320FFF726FF1520FFF723FFB12056
:100AEC00FFF7FEFE4020FFF71DFF0820FFF71AFF5F
:100AFC005320FFF717FF0920FFF714FF1120FFF712
:100B0C0011FF0920FFF70EFF0220FFF70BFF072054
:100B1C00FFF708FF0920FFF705FF1A20FFF702FF78
:100B2C000420FFF7FFFE1220FFF7FCFE1220FFF758
:100B3C00F9FE6420FFF7F6FE2920FFF7F3FE2920CB
:100B4C00FFF7F0FEFF20FFF7CBFE7720FFF7EAFE62
:100B5C000120FFF7E7FE0020FFF7E4FE0020FFF77F
:100B6C00E1FE1120FFF7DEFEB020FFF7B9FE6D208D
:100B7C00FFF7D8FEB120FFF7B3FE1D20FFF7D2FE22
:100B8C00B220FFF7ADFE8720FFF7CCFEB320FFF7B6
:100B9C00A7FE8020FFF7C6FEB520FFF7A1FE492077
:100BAC00FFF7C0FEB720FFF79BFE8520FFF7BAFECC
:100BBC00B820FFF795FE2020FFF7B4FEC120FFF709
:100BCC008FFE7820FFF7AEFEC220FFF789FE78205B
:100BDC00FFF7A8FED020FFF783FE8820FFF7A2FEC8
:100BEC00E020FFF77DFE0020FFF79CFE0020FFF7C2
:100BFC0099FE0220FFF796FEE120FFF771FE02201E
:100C0C00FFF790FE8C20FFF78DFE0020FFF78AFE89
:100C1C000020FFF787FE0320FFF784FE8C20FFF7F0
:100C2C0081FE0020FFF77EFE0020FFF77BFE0020F8
:100C3C00FFF778FE3320FFF775FE3320FFF772FEC7
:100C4C00E220FFF74DFE3320FFF76CFE3320FFF759
:100C5C0069FE3320FFF766FE3320FFF763FEC920E1
:100C6C00FFF760FE3C20FFF75DFE0020FFF75AFE09
:100C7C000020FFF757FECA20FFF754FE3C20FFF779
:100C8C0051FE0020FFF74EFE0020FFF74BFE002028
:100C9C00FFF748FEE320FFF723FE0020FFF742FE9C
:100CAC000020FFF73FFE3320FFF73CFE3320FFF719
:100CBC0039FEE420FFF714FE4420FFF733FE4420F6
:100CCC00FFF730FEE520FFF70BFE0520FFF72AFEAD
:100CDC00CD20FFF727FE8220FFF724FE8220FFF7AE
:100CEC0021FE0120FFF71EFEC920FFF71BFE82200C
:100CFC00FFF718FE8220FFF715FE0720FFF712FE04
:100D0C00CF20FFF70FFE8220FFF70CFE8220FFF7AB
:100D1C0009FE0320FFF706FECB20FFF703FE82201F
:100D2C00FFF700FE8220FFF7FDFDE620FFF7D8FD60
:100D3C000020FFF7F7FD0020FFF7F4FD3320FFF74D
:100D4C00F1FD3320FFF7EEFDE720FFF7C9FD44204E
:100D5C00FFF7E8FD4420FFF7E5FDE820FFF7C0FDB5
:100D6C000620FFF7DFFDCE20FFF7DCFD8220FFF72A
:100D7C00D9FD8220FFF7D6FD0220FFF7D3FDCA2054
:100D8C00FFF7D0FD8220FFF7CDFD8220FFF7CAFDD3
:100D9C000820FFF7C7FDD020FFF7C4FD8220FFF726
:100DAC00C1FD8220FFF7BEFD0420FFF7BBFDCC2068
:100DBC00FFF7B8FD8220FFF7B5FD8220FFF7B2FDEB
:100DCC00EB20FFF78DFD0820FFF7ACFD0120FFF7AE
:100DDC00A9FDE420FFF7A6FDE420FFF7A3FD882082
:100DEC00FFF7A0FD0020FFF79DFD4020FFF79AFDC7
:100DFC00EC20FFF775FD0020FFF794FD0020FFF7B6
:100E0C0091FD0020FFF78EFDED20FFF769FDFF201F
:100E1C00FFF788FDF020FFF785FD0720FFF782FD27
:100E2C006520FFF77FFD4F20FFF77CFDFC20FFF7CF
:100E3C0079FDC220FFF776FD2F20FFF773FDF2201E
:100E4C00FFF770FD2C20FFF76DFDCF20FFF76AFD3B
:100E5C00F420FFF767FD5620FFF764FD7020FFF7C5
:100E6C0061FD0F20FFF75EFDFF20FFF75BFDEF201C
:100E7C00FFF736FD1020FFF755FD0D20FFF752FD53
:100E8C000420FFF74FFD0820FFF74CFD3F20FFF734
:100E9C0049FD1F20FFF746FDFF20FFF721FD7720BE
:100EAC00FFF740FD0120FFF73DFD0020FFF73AFD65
:100EBC000020FFF737FD0020FFF734FD1120FFF76E
:100ECC000FFD782003F04EFB3520FFF709FD0020C5
:100EDC00FFF728FD3A20FFF703FD6620FFF722FD00
:100EEC002920FFF7FDFC00BF80BD80B582B000AFAC
:100EFC00FF20FFF7F5FC7720FFF714FD0120FFF72B
:100F0C0011FD0020FFF70EFD0020FFF70BFD132055
:100F1C00FFF708FDEF20FFF7E3FC0820FFF702FDC9
:100F2C00FF20FFF7DDFC7720FFF7FCFC0120FFF72B
:100F3C00F9FC0020FFF7F6FC0020FFF7F3FC102073
:100F4C00FFF7F0FCC020FFF7CBFC7720FFF7EAFCA3
:100F5C000020FFF7E7FCC120FFF7C2FC0A20FFF7D7
:100F6C00E1FC0C20FFF7DEFCC220FFF7B9FC3720B8
:100F7C00FFF7D8FC0820FFF7D5FCC320FFF7B0FC27
:100F8C008120FFF7CFFC3820FFF7CCFC2220FFF7A5
:100F9C00C9FCCC20FFF7A4FC1020FFF7C3FCB02049
:100FAC00FFF79EFC4020FFF7BDFC1420FFF7BAFCB6
:100FBC005920FFF7B7FC1020FFF7B4FC1220FFF705
:100FCC00B1FC0820FFF7AEFC0320FFF7ABFC0920B7
:100FDC00FFF7A8FC0520FFF7A5FC1E20FFF7A2FCDD
:100FEC000520FFF79FFC1420FFF79CFC1020FFF757
:100FFC0099FC6820FFF796FC3320FFF793FC152033
:10100C00FFF790FCB120FFF76BFC4020FFF78AFC48
:10101C000820FFF787FC5320FFF784FC0920FFF71B
:10102C0081FC1120FFF77EFC0920FFF77BFC0220DE
:10103C00FFF778FC0720FFF775FC0920FFF772FC1F
:10104C001A20FFF76FFC0420FFF76CFC1220FFF74F
:10105C0069FC1220FFF766FC6420FFF763FC292073
:10106C00FFF760FC2920FFF75DFCFF20FFF738FC41
:10107C007720FFF757FC0120FFF754FC0020FFF707
:10108C0051FC0020FFF74EFC1120FFF74BFCB02069
:10109C00FFF726FC6D20FFF745FCB120FFF720FC85
:1010AC001D20FFF73FFCB220FFF71AFC8720FFF74B
:1010BC0039FCB320FFF714FC0020FFF733FCB520FC
:1010CC00FFF70EFC4920FFF72DFCB720FFF708FCBB
:1010DC008520FFF727FCB820FFF702FC2020FFF744
:1010EC0021FCC120FFF7FCFB7820FFF71BFCC22082
:1010FC00FFF7F6FB7820FFF715FCD020FFF7F0FB8D
:10110C008820FFF70FFCE020FFF7EAFB0020FFF739
:10111C0009FC0020FFF706FC0220FFF703FC00236C
:10112C00FB710223BB71FB79002B01D0102200E074
:10113C00002297F9063003F003035BB213435BB252
:10114C007B71E120FFF7CCFB7B791846FFF7EAFBBC
:10115C008C20FFF7E7FB0020FFF7E4FB0020FFF7F4
:10116C00E1FB0320FFF7DEFB8C20FFF7DBFB00200D
:10117C00FFF7D8FB0020FFF7D5FB0020FFF7D2FBD1
:10118C003320FFF7CFFB3320FFF7CCFB00233B7161
:10119C000223FB703B79002B01D0102200E00022CF
:1011AC0097F9033003F003035BB213435BB2BB70DC
:1011BC00E220FFF795FBBB781846FFF7B3FB332013
:1011CC00FFF7B0FB3320FFF7ADFB3320FFF7AAFB93
:1011DC003320FFF7A7FBC920FFF7A4FB3C20FFF748
:1011EC00A1FB0020FFF79EFB0020FFF79BFBCA2012
:1011FC00FFF798FB3C20FFF795FB0020FFF792FBD5
:10120C000020FFF78FFB0020FFF78CFBE320FFF79C
:10121C0067FB0020FFF786FB0020FFF783FB3320E2
:10122C00FFF780FB3320FFF77DFBE420FFF758FB33
:10123C004420FFF777FB4420FFF774FBE520FFF712
:10124C004FFB0520FFF76EFBCD20FFF76BFB8220D9
:10125C00FFF768FB8220FFF765FB0120FFF762FBBD
:10126C00C920FFF75FFB8220FFF75CFB8220FFF7B2
:10127C0059FB0720FFF756FBCF20FFF753FB8220CB
:10128C00FFF750FB8220FFF74DFB0320FFF74AFBD3
:10129C00CB20FFF747FB8220FFF744FB8220FFF7B0
:1012AC0041FBE620FFF71CFB0020FFF73BFB002077
:1012BC00FFF738FB3320FFF735FB3320FFF732FB0A
:1012CC00E720FFF70DFB4420FFF72CFB4420FFF732
:1012DC0029FBE820FFF704FB0620FFF723FBCE20B9
:1012EC00FFF720FB8220FFF71DFB8220FFF71AFB84
:1012FC000220FFF717FBCA20FFF714FB8220FFF731
:10130C0011FB8220FFF70EFB0820FFF70BFBD02010
:10131C00FFF708FB8220FFF705FB8220FFF702FB9B
:10132C000420FFF7FFFACC20FFF7FCFA8220FFF72E
:10133C00F9FA8220FFF7F6FAEB20FFF7D1FA082032
:10134C00FFF7F0FA0120FFF7EDFAE420FFF7EAFAD5
:10135C00E420FFF7E7FA8820FFF7E4FA0020FFF714
:10136C00E1FA4020FFF7DEFAEC20FFF7B9FA002093
:10137C00FFF7D8FA0020FFF7D5FA0020FFF7D2FAD2
:10138C00ED20FFF7ADFAFF20FFF7CCFAF020FFF7C6
:10139C00C9FA0720FFF7C6FA6520FFF7C3FA4F20FA
:1013AC00FFF7C0FAFC20FFF7BDFAC220FFF7BAFA2C
:1013BC002F20FFF7B7FAF220FFF7B4FA2C20FFF733
:1013CC00B1FACF20FFF7AEFAF420FFF7ABFA5620B4
:1013DC00FFF7A8FA7020FFF7A5FA0F20FFF7A2FA83
:1013EC00FF20FFF79FFAEF20FFF77AFA1020FFF7A4
:1013FC0099FA0D20FFF796FA0420FFF793FA0820CC
:10140C00FFF790FA3F20FFF78DFA1F20FFF78AFABB
:10141C00FF20FFF765FA7720FFF784FA0120FFF72A
:10142C0081FA0020FFF77EFA0020FFF77BFA0020FC
:10143C00FFF778FA1120FFF753FA782003F092F8AF
:10144C003520FFF74DFA0020FFF76CFA3A20FFF732
:10145C0047FA5520FFF766FA2920FFF741FA00BF3B
:10146C000837BD4680BD000080B500AF00224FF4A8
:10147C008061084803F0E1FF642003F073F8012257
:10148C004FF48061034803F0D8FF642003F06AF83E
:10149C0000BF80BD000C014080B584B000AF034696
:1014AC00FB710023FB73002210210D4803F0C5FFD4
:1014BC0007F10F014FF0FF3301220A4804F096FCAC
:1014CC00F91D4FF0FF330122064804F08FFC012276
:1014DC001021034803F0B1FF00BF1037BD4680BD9B
:1014EC00000801401C06002080B584B000AF034604
:1014FC00FB718023FB73002210210D4803F09DFF2C
:10150C0007F10F014FF0FF3301220A4804F06EFC83
:10151C00F91D4FF0FF330122064804F067FC01224D
:10152C001021034803F089FF00BF1037BD4680BD72
:10153C00000801401C06002080B582B000AF40239B
:10154C00FB710023BB7100221021144803F075FFBE
:10155C00F91D4FF0FF330122114804F047FC0346FC
:10156C00002B0DD1B91D4FF0FF3301220C4804F0B4
:10157C0079FD0346002B03D10A4B01221A7002E0BD
:10158C00084B00221A7001221021044803F055FF69
:10159C00BB7918460837BD4680BD00BF0008014026
:1015AC001C060020DC00002080B582B000AFC023F8
:1015BC00FB710023BB71002210210D4803F03DFF8D
:1015CC00F91D4FF0FF3301220A4804F00FFCB91D3E
:1015DC004FF0FF330122074804F044FD0122102193
:1015EC00034803F02AFFBB7918460837BD4680BD77
:1015FC00000801401C06002080B582B000AF0346F5
:10160C000A46FB711346BB71FB791846FFF744FF82
:10161C00BB791846FFF768FF00BF0837BD4680BD91
:10162C0080B500AF00F054FE0A2002F09BFF00F0E2
:10163C0001FB642002F096FF00F03FFC052002F055
:10164C0091FF00F09DFC642002F08CFF00F0C0FDC7
:10165C00052002F087FF4FF470714FF4C87000F052
:10166C00D3FC052002F07EFF394B1B689BB2184659
:10167C0000F011FD052002F075FF364B1B689BB284
:10168C00184600F02BFD052002F06CFF324B1B6856
:10169C009BB2184600F03EFD052002F063FF2F4B75
:1016AC001B689BB2184600F051FD052002F05AFF52
:1016BC002B4B1B689BB2184600F062FD052002F014
:1016CC0051FF284B1B689BB2184600F06DFD05209E
:1016DC0002F048FF00F06DFE052002F043FF00F021
:1016EC007FFB052002F03EFF00F020FE052002F0FB
:1016FC0039FF00F02BFE052002F034FF00F065FAF4
:10170C00052002F02FFF00F044FE052002F02AFF16
:10171C0000F091FE052002F025FF00F0B8FE052038
:10172C0002F020FF00F059FE052002F01BFF00F034
:10173C0064FE052002F016FF00F0DCFD052002F02F
:10174C0011FF00F02AFA00F049F900BF80BD00BF7C
:10175C00200000202400002028000020140000207D
:10176C00180000201C00002090B583B000AF044688
:10177C00084611461A462346FB800346BB800B469F
:10178C007B8013463B806820FFF786FEFB88DBB22C
:10179C001846FFF7A9FE6920FFF77EFEFB881B0A9F
:1017AC009BB2DBB203F01F03DBB21846FFF79CFEC3
:1017BC006A20FFF771FEBB88DBB21846FFF794FE78
:1017CC006B20FFF769FEBB881B0A9BB2DBB203F0F0
:1017DC001F03DBB21846FFF787FE6C20FFF75CFE99
:1017EC007B88DBB21846FFF77FFE6D20FFF754FEB7
:1017FC007B881B0A9BB2DBB203F01F03DBB21846DB
:10180C00FFF772FE6E20FFF747FE3B88DBB21846EF
:10181C00FFF76AFE6F20FFF73FFE3B881B0A9BB267
:10182C00DBB203F01F03DBB21846FFF75DFED220DC
:10183C00FFF732FE3B8BDBB21846FFF755FED32089
:10184C00FFF72AFEBB8BDBB21846FFF74DFED42008
:10185C00FFF722FE3B8CDBB21846FFF745FE6720F4
:10186C00FFF71AFE8020FFF73FFE00BF0C37BD4686
:10187C0090BD90B585B000AF0446084611461A4697
:10188C002346FB710346BB710B467B7113463B71C0
:10189C000023FB730023BB7397F907309B015AB2EB
:1018AC0097F90F3013435BB2FB7397F906301B01AA
:1018BC005BB203F030035AB297F90F3013435BB2AB
:1018CC00FB7397F9053003F003035AB297F90F3005
:1018DC0013435BB2FB73CC20FFF7DEFDFB7B18469A
:1018EC00FFF702FE97F90430DB015AB297F90E307C
:1018FC0013435BB2BB7397F920309B015AB297F933
:10190C000E3013435BB2BB7397F924301B015AB2F0
:10191C0097F90E3013435BB2BB7397F928309B00D9
:10192C005BB203F00C035AB297F90E3013435BB25F
:10193C00BB7397F92C3003F003035AB297F90E30AE
:10194C0013435BB2BB73CD20FFF7A6FDBB7B1846E0
:10195C00FFF7CAFDD020FFF79FFD97F8303003F05A
:10196C001F03DBB21846FFF7BFFDD120FFF794FD34
:10197C0097F8343003F03F03DBB21846FFF7B4FDA1
:10198C006320FFF789FD3B8FDBB21846FFF7ACFDF8
:10199C006420FFF781FD3B8F1B0A9BB2DBB203F087
:1019AC001F03DBB21846FFF79FFD6520FFF774FDA0
:1019BC00BB8FDBB21846FFF797FD6620FFF76CFD77
:1019CC00BB8F1B0A9BB2DBB203F01F03DBB21846C2
:1019DC00FFF78AFD00BF1437BD4690BD80B58AB0B5
:1019EC0008AF08237B8010233B800021002000F0EF
:1019FC0097F80023079300230693002305930023F5
:101A0C0004930123039301230293012301930023E5
:101A1C0000930023002200210020FFF72AFF00235F
:101A2C00FB803BE00023BB8030E06320FFF734FDFC
:101A3C00BB88DBB21846FFF757FD6420FFF72CFD7F
:101A4C00BB881B0A9BB2DBB203F01F03DBB2184648
:101A5C00FFF74AFD6520FFF71FFDFB88DBB2184638
:101A6C00FFF742FD6620FFF717FDFB881B0A9BB2B0
:101A7C00DBB203F01F03DBB21846FFF735FD0C4851
:101A8C0000F032F8BA883B881344BB80BB88B3F5AE
:101A9C00C87FCAD3FA887B881344FB80FB88B3F5D4
:101AAC00707FBFD300BF00BF0837BD4680BD00BFED
:101ABC00747E000880B582B000AF0A4B7B60FFF7E4
:101ACC003BFD0346FB70FB7803F00803002B05D0AD
:101ADC007B68013B7B607B68002BF0D100BF083733
:101AEC00BD4680BDA086010080B582B000AF786095
:101AFC000CE0FFF7DFFF0420FFF7CEFC7B681B78C0
:101B0C001846FFF7F1FC7B6801337B607B681B7820
:101B1C00002BEED1FFF7CEFF00BF0837BD4680BDCE
:101B2C0080B582B000AF78603960D220FFF7B4FC8A
:101B3C007B681B0CDBB21846FFF7D6FCD320FFF7F3
:101B4C00ABFC7B681B0ADBB21846FFF7CDFCD4203C
:101B5C00FFF7A2FC7B68DBB21846FFF7C5FCD5206B
:101B6C00FFF79AFC3B681B0CDBB21846FFF7BCFC7A
:101B7C00D620FFF791FC3B681B0ADBB21846FFF737
:101B8C00B3FCD720FFF788FC3B68DBB21846FFF7A5
:101B9C00ABFC00BF0837BD4680BD80B582B000AF3E
:101BAC000023FB71FB7943F00403FB71FB7923F0F9
:101BBC000303FB710320FFF76FFCFB791846FFF75B
:101BCC0093FC00BF0837BD4680BD80B500AF5620E2
:101BDC00FFF762FC0020FFF787FC5720FFF75CFC47
:101BEC000020FFF781FC5820FFF756FC0020FFF780
:101BFC007BFC5920FFF750FC0020FFF775FC5A20A6
:101C0C00FFF74AFC8F20FFF76FFC5B20FFF744FCCB
:101C1C000120FFF769FC5C20FFF73EFCBF20FFF7BB
:101C2C0063FC5D20FFF738FC0320FFF75DFC00BF71
:101C3C0080BD000080B588B000AF614B1A68614B65
:101C4C001B681A44604B1B68134403F5C8735F4A46
:101C5C0011685F4A126811445E4A12680A4402F520
:101C6C00707202FB03F35C4A126802FB03F37B61A4
:101C7C007B6903F5F42303F59073584AA2FB032305
:101C8C009B0C7B617B69FB837B699BB25B00BB8399
:101C9C007B699BB25B007B83FB8B412B01D941237E
:101CAC00FB83BB8B642B01D96423BB837B8B642BA1
:101CBC0001D964237B8302237B8202233B82022390
:101CCC00FB810523BB8105237B8105233B81FB8B9A
:101CDC00FB807B8BBB80BB8B7B800520FFF7DCFB09
:101CEC007B8A5BB29B015AB2BB895BB25B005BB275
:101CFC0013435AB2FB881B0A9BB25BB203F001037D
:101D0C005BB213435BB2DBB21846FFF7EDFB062068
:101D1C00FFF7C2FBFB88DBB21846FFF7E5FB072099
:101D2C00FFF7BAFBFB895BB29B015AB23B895BB2F2
:101D3C005B005BB213435AB27B881B0A9BB25BB24B
:101D4C0003F001035BB213435BB2DBB21846FFF73F
:101D5C00CBFB0820FFF7A0FB7B88DBB21846FFF714
:101D6C00C3FB0920FFF798FB3B8A5BB29B015AB27D
:101D7C007B895BB25B005BB213435AB2BB881B0A14
:101D8C009BB25BB203F001035BB213435BB2DBB2F9
:101D9C001846FFF7A9FB0A20FFF77EFBBB88DBB2D6
:101DAC001846FFF7A1FB0020FFF776FB8020FFF71A
:101DBC009BFB0A2002F0D6FB00BF2037BD4680BD3E
:101DCC002000002024000020280000201400002007
:101DDC00180000201C0000202C00002083DE1B4378
:101DEC0080B582B000AF0023FB71FB7943F0040394
:101DFC00FB711020FFF750FBFB791846FFF774FBC3
:101E0C002A20FFF749FB0020FFF76EFB2B20FFF782
:101E1C0043FB0020FFF768FB2C20FFF73DFB002065
:101E2C00FFF762FB2D20FFF737FB0020FFF75CFB71
:101E3C002E20FFF731FB6420FFF756FB2F20FFF716
:101E4C002BFB0020FFF750FB3020FFF725FB642015
:101E5C00FFF74AFB3120FFF71FFB0020FFF744FB85
:101E6C003220FFF719FB0020FFF73EFB3320FFF772
:101E7C0013FB0020FFF738FB3420FFF70DFB00208D
:101E8C00FFF732FB3520FFF707FB0020FFF72CFB99
:101E9C000023BB71BB7943F00403BB71BB7943F0E6
:101EAC000103BB711120FFF7F7FABB791846FFF756
:101EBC001BFB00BF0837BD4680BD80B582B000AFAC
:101ECC000023FB71E420FFF7E7FAFB7943F00403EE
:101EDC00FB71FB791846FFF707FBE020FFF7DCFAF4
:101EEC002920FFF701FBE120FFF7D6FA0320FFF7CB
:101EFC00FBFA9C23BB80BB88023BBB80E220FFF734
:101F0C00CBFABB88DBB21846FFF7EEFAE320FFF7FB
:101F1C00C3FABB881B0A9BB2DBB21846FFF7E4FA84
:101F2C00E420FFF7B9FA0120FFF7DEFAE420FFF70F
:101F3C00B3FAFB7923F00403FB71FB791846FFF726
:101F4C00D3FA012002F00EFB00F004F800BF0837B2
:101F5C00BD4680BD80B582B000AFE420FFF79CFA8F
:101F6C00FFF722FB0346FB71FB7903F00103002B07
:101F7C00F3D00A2002F0F6FA00BF0837BD4680BD48
:101F8C0080B582B000AF0023FB71FB7943F00803EE
:101F9C00FB71FB7943F04003FB710120FFF77CFAE6
:101FAC00FB791846FFF7A0FA0023FB710220FFF71C
:101FBC0073FAFB791846FFF797FA0023FB7103209D
:101FCC00FFF76AFAFB791846FFF78EFA0023FB71CC
:101FDC001220FFF761FAFB791846FFF785FA002308
:101FEC00FB71FB7943F00203FB71FB7943F00103B6
:101FFC00FB711320FFF750FAFB791846FFF774FAC0
:10200C0000BF0837BD4680BD80B584B000AF034625
:10201C000A46FB801346BB80FB88DB089BB2013B66
:10202C00FB810023BB811420FFF736FAFB89DBB25E
:10203C001846FFF759FA1520FFF72EFABB89DBB2C9
:10204C0003F00F03DBB21846FFF74EFABB88B3F56B
:10205C00806F02D94FF48063BB80BB88002B01D109
:10206C000123BB80BB88013B7B811A20FFF714FA4C
:10207C007B89DBB21846FFF737FA1B20FFF70CFA07
:10208C007B891B0A9BB2DBB21846FFF72DFA00BF07
:10209C001037BD4680BD80B584B000AF0346FB80D1
:1020AC00FB88DB089BB2013BFB810023BB81162024
:1020BC00FFF7F2F9FB89DBB21846FFF715FA172088
:1020CC00FFF7EAF9BB89DBB203F00F03DBB218466A
:1020DC00FFF70AFA00BF1037BD4680BD80B584B04B
:1020EC0000AF0346FB80FB88072B02D80023FB8143
:1020FC0004E0FB88DB089BB2013BFB811820FFF757
:10210C00CBF9FB89DBB21846FFF7EEF900BF1037AD
:10211C00BD4680BD80B584B000AF0346FB80FB8814
:10212C00072B02D80023FB8104E0FB88DB089BB261
:10213C00013BFB811920FFF7AFF9FB89DBB2184695
:10214C00FFF7D2F900BF1037BD4680BD80B584B013
:10215C0000AF0346FB80FB88DBB2013BFB731C200A
:10216C00FFF79AF9FB7B1846FFF7BEF91D20FFF726
:10217C0093F90020FFF7B8F900BF1037BD4680BDBA
:10218C0080B584B000AF0346FB80FB88DBB2013B1B
:10219C00FB731E20FFF780F9FB7B1846FFF7A4F9B1
:1021AC0000BF1037BD4680BD80B584B000AF03467C
:1021BC00FB80FB88DBB2013BFB731F20FFF76CF944
:1021CC00FB7B1846FFF790F900BF1037BD4680BD6A
:1021DC0080B582B000AF0023FB71FB7943F0400364
:1021EC00FB71FB7943F00803FB711220FFF754F9E4
:1021FC00FB791846FFF778F900BF0837BD4680BD5C
:10220C0080B582B000AF0023FB71FB7923F0400353
:10221C00FB711220FFF740F9FB791846FFF764F9C0
:10222C0000BF0837BD4680BD80B584B000AF034603
:10223C00FB71FB79642B01D96423FB718420FFF7BC
:10224C002BF91020FFF750F98520FFF725F988208E
:10225C00FFF74AF9FA7913461B029B1A1B4A82FBB9
:10226C0003125211DB17D31AFB81FF23BB818C2085
:10227C00FFF712F9FB89DBB21846FFF735F98D2011
:10228C00FFF70AF9FB891B0A9BB2DBB21846FFF772
:10229C002BF98E20FFF700F9BB89DBB21846FFF74C
:1022AC0023F98F20FFF7F8F8BB891B0A9BB2DBB22E
:1022BC001846FFF719F98620FFF7EEF83020FFF7E4
:1022CC0013F900BF1037BD4680BD00BF1F85EB5111
:1022DC0080B582B000AF0023FB71FB7943F00103A2
:1022EC00FB71FB7919460020FFF786F900BF083710
:1022FC00BD4680BD80B500AF2020FFF7CDF8002093
:10230C00FFF7F2F82120FFF7C7F80020FFF7ECF8F1
:10231C002220FFF7C1F80020FFF7E6F82320FFF793
:10232C00BBF80020FFF7E0F800BF80BD80B500AF20
:10233C002420FFF7B1F89020FFF7D6F82520FFF7FF
:10234C00ABF80120FFF7D0F800BF80BD80B582B09C
:10235C0000AF0023FB80FB88DBB223F003037B710F
:10236C00FB881B0A9BB2DBB203F01F033B712620D8
:10237C00FFF792F87B791846FFF7B6F82720FFF79E
:10238C008BF83B791846FFF7AFF800BF0837BD460E
:10239C0080BD80B500AF2820FFF77EF80020FFF746
:1023AC00A3F82920FFF778F80020FFF79DF800BF6D
:1023BC0080BD80B582B000AF0023FB71FB7943F088
:1023CC000103FB715E20FFF767F8FB791846FFF7F6
:1023DC008BF800BF0837BD4680BD80B500AF5F20CD
:1023EC00FFF75AF80020FFF77FF86020FFF754F84A
:1023FC000020FFF779F800BF80BD80B582B000AF38
:10240C000023FB806120FFF747F8FB88DBB21846FE
:10241C00FFF76AF86220FFF73FF8FB881B0A9BB2B4
:10242C00DBB203F01F03DBB21846FFF75DF800BF09
:10243C000837BD4680BD80B582B000AF00237B60FD
:10244C005020FFF729F87B68DBB21846FFF74CF8F1
:10245C005120FFF721F87B681B0ADBB21846FFF707
:10246C0043F85220FFF718F87B681B0CDBB21846B8
:10247C00FFF73AF85320FFF70FF87B681B0EDBB21F
:10248C001846FFF731F800BF0837BD4680BD80B550
:10249C0000AF5420FFF700F89020FFF725F85520E7
:1024AC00FEF7FAFF0120FFF71FF800BF80BD000008
:1024BC0080B483B000AF0346FB7197F90730002B53
:1024CC000BDBFB7903F01F02064997F907305B0918
:1024DC00012000FA02F241F8232000BF0C37BD4660
:1024EC0080BC704700E100E080B500AF124BDB69A7
:1024FC00114A43F00103D3614FF0804341F61F4270
:10250C009A624FF0804341F28732DA624FF0804397
:10251C00DB684FF0804243F00103D3604FF08043FF
:10252C001B684FF0804243F0010313601C20FFF73F
:10253C00BFFF00BF80BD00BF0010024080B400AFE1
:10254C004FF080431B6903F00103002B0AD04FF0BE
:10255C0080431B694FF0804223F001031361034B4E
:10256C0001221A7000BFBD4680BC7047DD00002000
:10257C0080B483B000AF0346FB80FA8813469B00FF
:10258C0013445B005A1E4FF08043DA624FF08043D5
:10259C0001225A6100BF0C37BD4680BC7047000059
:1025AC0080B582B000AF104B5B690F4A43F001035A
:1025BC0053610D4B5B6903F001037B607B68002268
:1025CC0000210D2002F0C9F80D2002F0E2F80022E3
:1025DC0000210E2002F0C1F80E2002F0DAF800BF44
:1025EC000837BD4680BD00BF0010024080B588B0E2
:1025FC0000AF07F1100300221A605A609A60DA608B
:10260C00684B9B69674A43F010039361654B9B6968
:10261C0003F01003FB60FB68624B9B69614A43F05B
:10262C00200393615F4B9B6903F02003BB60BB6885
:10263C005C4B9B695B4A43F004039361594B9B6968
:10264C0003F004037B607B68564B9B69554A43F04F
:10265C0008039361534B9B6903F008033B603B6891
:10266C0000224FF40051504802F0E7FE4FF40053A3
:10267C003B6101237B610023BB610223FB6107F1FA
:10268C0010031946484802F03DFD4FF480633B614E
:10269C0001237B610023BB610223FB6107F1100363
:1026AC001946424802F02EFD4FF400633B61404B4B
:1026BC007B610023BB6107F1100319463B4802F014
:1026CC0021FD08233B6101237B610123BB610323B3
:1026DC00FB6107F110031946344802F013FD102377
:1026EC003B6101237B610023BB610323FB6107F189
:1026FC00100319462D4802F005FD20233B610123F0
:10270C007B610023BB610323FB6107F110031946B6
:10271C00264802F0F7FC01233B6100237B61012377
:10272C00BB610223FB6107F1100319461F4802F03D
:10273C00E9FC02233B6100237B610123BB61022383
:10274C00FB6107F110031946184802F0DBFC4FF44B
:10275C0000633B6100237B610023BB610223FB61AF
:10276C0007F110031946114802F0CCFC4FF48053CA
:10277C003B6100237B610023BB610223FB6107F1FA
:10278C0010031946094802F0BDFC00220021282044
:10279C0001F0E3FF282001F0FCFF00BF2037BD460D
:1027AC0080BD00BF0010024000100140000C014031
:1027BC000000111080B483B000AF0346FB7197F991
:1027CC000730002B0BDBFB7903F01F02064997F94E
:1027DC0007305B09012000FA02F241F8232000BF08
:1027EC000C37BD4680BC704700E100E080B483B07C
:1027FC0000AF0346FB7197F90730002B12DBFB7916
:10280C0003F01F020A4997F907305B09012000FA0F
:10281C0002F2203341F82320BFF34F8F00BFBFF3E8
:10282C006F8F00BF00BF0C37BD4680BC704700BF28
:10283C0000E100E080B483B000AF0346FB71FB798C
:10284C001F2B02D9FB797E2B01D93F2300E0FB79AA
:10285C0018460C37BD4680BC704780B483B000AFBF
:10286C000346FB7197F907305B005BB223F055030D
:10287C005AB2FB795B105BB203F055035BB21343A6
:10288C005BB2FB7197F907309B005BB223F033030B
:10289C005AB2FB799B105BB203F033035BB2134368
:1028AC005BB2FB71FB791B09DBB25AB297F90730AB
:1028BC001B015BB213435BB2DBB218460C37BD464F
:1028CC0080BC704780B584B000AF78600023FB609B
:1028DC0014E0FB68DB000D4A1344072219467868A4
:1028EC0004F03AFD0346002B05D1084AFB68DB00D7
:1028FC001344DB7906E0FB680133FB60FB68732B48
:10290C00E7D93F2318461037BD4680BDF880000834
:10291C0080B584B000AF0023FB601FE1FA6813465A
:10292C009B001344934AD35CFB72FA6813469B00DA
:10293C00134401338F4AD35CBB72FA6813469B0075
:10294C00134402338B4AD35C7B72FA6813469B00A8
:10295C0013440333874AD35C3B72FA6813469B00DB
:10296C0013440433834AD35CFB7197F90A301B017F
:10297C005AB27B7A1B115BB203F008035BB21343B0
:10298C005BB2DBB21846FFF768FF034618467A4A7B
:10299C00FB6813441B78194600F01F03D8B2774A22
:1029AC000B46DB005B1A134402461A7097F90B3086
:1029BC00DB015AB2BB7A5B105BB203F078035BB2FB
:1029CC0013435BB2DBB21846FFF747FF03461846CA
:1029DC00694AFB6813441B78194600F01F03D8B2F0
:1029EC00664A0B46DB005B1A1344013302461A702D
:1029FC00FB7A9B00DBB223F00703DBB21846FFF730
:102A0C002CFF034618465C4AFB6813441B78194696
:102A1C0000F01F03D8B2594A0B46DB005B1A134473
:102A2C00023302461A70FB7ADB105BB203F0180318
:102A3C005AB297F907305B015BB213435BB2DBB25E
:102A4C001846FFF70AFF034618464B4AFB68134427
:102A5C001B78194600F01F03D8B2484A0B46DB001E
:102A6C005B1A1344033302461A70FB7923F00703F5
:102A7C00DBB21846FFF7F1FE034618463E4AFB68E8
:102A8C0013441B78194600F01F03D8B23B4A0B467F
:102A9C00DB005B1A1344043302461A703B7ADB00EA
:102AAC00DBB21846FFF7D9FE03461846324AFB68DC
:102ABC0013441B78194600F01F03D8B22F4A0B465B
:102ACC00DB005B1A1344053302461A7097F9093080
:102ADC009B015AB23B7A9B105BB203F038035BB29A
:102AEC0013435BB2DBB21846FFF7B7FE034618463A
:102AFC00214AFB6813441B78194600F01F03D8B217
:102B0C001E4A0B46DB005B1A1344063302461A704E
:102B1C007B7A03F04003002B14BF01230023D9B2AE
:102B2C00154AFB6813441B781A46154B9954FB68DD
:102B3C00242B10DC104AFB6813441B781A46104BEC
:102B4C009B5C002B14BF01230023D9B20D4AFB68F8
:102B5C0013440A461A70FB680133FB60FB682E2B8A
:102B6C007FF7DCAE084B00229A7400BF1037BD46CD
:102B7C0080BD00BFF4020020C8800008E0030020E4
:102B8C002C050020CC020020EC05002080B400AF06
:102B9C00274B1A7A274B5A70254BDA79254B9A70AA
:102BAC00234B9A79234BDA70214B5A79214B1A71AA
:102BBC001F4B1A791F4B5A711D4BDA781D4B9A71AA
:102BCC001B4B9A781B4BDA71194B5A78194B1A72AA
:102BDC00174B1A78174B5A72154B93F82320154B39
:102BEC009A72134B93F82220124BDA72104B93F813
:102BFC002120104B1A730E4B93F820200D4B5A7357
:102C0C000B4BDA7F0B4B9A73094B9A7F094BDA7398
:102C1C00074B5A7F074B1A74054B1A7F054B5A7496
:102C2C00034BDA7E034B9A7400BFBD4680BC7047E1
:102C3C00CC020020B80200202DE9F0419AB00AAF76
:102C4C00802200219A4804F097FB802200219948A9
:102C5C0004F092FB80220021974804F08DFBFFF7D3
:102C6C0095FF0023FB638BE0FA6B1346DB009B1A8A
:102C7C00924A13447B617869FFF724FE0346FB7488
:102C8C00FB6B002B03D18E4AFB7C537075E0FB6B06
:102C9C00012B03D18A4AFB7C93706EE0FB6B022BF9
:102CAC0003D1874AFB7CD37067E0FB6B032B03D10A
:102CBC00834AFB7C137160E0FB6B042B03D1804ACD
:102CCC00FB7C537159E0FB6B052B03D17C4AFB7CDD
:102CDC00937152E0FB6B062B03D1794AFB7CD371C9
:102CEC004BE0FB6B072B03D1754AFB7C137244E062
:102CFC00FB6B082B03D1724AFB7C53723DE0FB6BE0
:102D0C00092B03D16E4AFB7C937236E0FB6B0A2BCA
:102D1C0003D16B4AFB7CD3722FE0FB6B0B2B03D1E3
:102D2C00674AFB7C137328E0FB6B0C2B03D1644AC2
:102D3C00FB7C537321E0FB6B0D2B03D1604AFB7CB6
:102D4C0093731AE0FB6B0E2B03D15D4AFB7CD373A0
:102D5C0013E0FB6B0F2B03D1594AFB7C13740CE073
:102D6C00FB6B102B03D1564AFB7C537405E0FB6BB9
:102D7C00112B02D1524AFB7C9374FB6B0133FB6326
:102D8C00FB6B112B7FF770AF3023BB6307E04C4A12
:102D9C00BB6B134423221A70BB6B0133BB63BB6B3D
:102DAC003F2BF4DD474B00229A7412237B632BE1FB
:102DBC007A6B1346DB009B1A404A1344FB61F8699B
:102DCC00FFF780FD0346FB767B6B122B03D13C4A4D
:102DDC00FB7ED374DFE07B6B132B03D1384AFB7E75
:102DEC001375D8E07B6B142B03D1354AFB7E5375DE
:102DFC00D1E07B6B152B03D1314AFB7E9375CAE076
:102E0C007B6B162B03D12E4AFB7ED375C3E07B6BF9
:102E1C00172B03D12A4AFB7E1376BCE07B6B182B55
:102E2C0003D1274AFB7E5376B5E07B6B192B03D17C
:102E3C00234AFB7E9376AEE07B6B1A2B03D1204AA0
:102E4C00FB7ED376A7E07B6B1B2B03D11C4AFB7E4E
:102E5C001377A0E07B6B1C2B03D1194AFB7E5377B5
:102E6C0099E07B6B1D2B03D1154AFB7E937792E087
:102E7C007B6B1E2B03D1124AFB7ED3778BE07B6BD3
:102E8C001F2B04D10E4AFB7E82F8203083E07B6B33
:102E9C00202B04D10A4AFB7E82F821307BE07B6B2D
:102EAC00212B11D1064AFB7E82F8223073E000BF41
:102EBC00F800002078010020F8010020E003002039
:102ECC0078020020E00000207B6B222B04D1A84A62
:102EDC00FB7E82F823305EE07B6B232B04D1A44A6B
:102EEC00FB7E82F8243056E07B6B242B04D1A04A65
:102EFC00FB7E82F825304EE07B6B252B04D19C4A5F
:102F0C00FB7E82F8263046E07B6B262B04D1984A58
:102F1C00FB7E82F827303EE07B6B272B04D1944A52
:102F2C00FB7E82F8283036E07B6B282B04D1904A4C
:102F3C00FB7E82F829302EE07B6B292B04D18C4A46
:102F4C00FB7E82F82A3026E07B6B2A2B04D1884A40
:102F5C00FB7E82F82B301EE07B6B2B2B04D1844A3A
:102F6C00FB7E82F82C3016E07B6B2C2B04D1804A34
:102F7C00FB7E82F82D300EE07B6B2D2B04D17C4A2E
:102F8C00FB7E82F82E3006E07B6B2E2B03D1784A29
:102F9C00FB7E82F82F307748FDF7BCF80346754A64
:102FAC009C187448FDF7B6F80346C3F18001FB6921
:102FBC001B781A46FB6901331B781846FB690233F0
:102FCC001B781D46FB6903331B781E46FB690433D3
:102FDC001B78FB60FB6905331B78BB60FB69063310
:102FEC001B780693D7F808C0CDF814C0FB6804937F
:102FFC0003960295019000927B6B5F4A204604F089
:10300C0053F97B6B01337B637B6B2E2B7FF7D0AE3D
:10301C00012387F83330002387F83230002387F8F8
:10302C0031303023FB620CE0514AFB6A13441B78AD
:10303C00232B03D0002387F8333005E0FB6A0133E0
:10304C00FB62FB6A3F2BEFDD0123BB6214E0484AB5
:10305C00BB6A13441B7887F8233097F823301F2B57
:10306C0003D997F823307E2B03D9012387F832300C
:10307C0005E0BB6A0133BB62BB6A122BE7DD13238D
:10308C007B6214E03A4A7B6A13441B7887F822303F
:10309C0097F822301F2B03D997F822307E2B03D9B7
:1030AC00012387F8313005E07B6A01337B627B6A50
:1030BC002F2BE7DD2E4BDB7B1846FFF7BBFB0346C4
:1030CC0098462B4B1B7C1846FFF7B4FB03461C465B
:1030DC00274B5B7C1846FFF7ADFB03461D46244B84
:1030EC009B7C1846FFF7A6FB03461E46204B93F825
:1030FC002C301846FFF79EFB0346FB601C4B93F8E5
:10310C002D301846FFF796FB0346BB60184B93F81F
:10311C002E301846FFF78EFB03467B60144B93F85A
:10312C002F301846FFF786FB0346184697F83230C7
:10313C0097F8312097F8331009910892079306906D
:10314C007A680592BA680492FB680393029601951B
:10315C0000944346094A1E21094804F0A5F8094B7E
:10316C0000225A7700BF4037BD46BDE8F08100BF52
:10317C007802002078010020787E0008AC7E0008E0
:10318C005C050020E0000020F0B5FBB008AF01F0BA
:10319C0087F900F0E3FE02F0F7FC0346424A1360A5
:1031AC0002F050FD0346414A136002F055FD034600
:1031BC003F4A136002F064FD03463E4A13603E4BE7
:1031CC005B6803F00C033D4A13603B4B1B6803F434
:1031DC0000333B4A1360384B1B6803F00073394AC9
:1031EC0013600023C7F8BC31FFF700FAFFF7D8F9DA
:1031FC0000F014FF00F048FFFFF776F901220821D8
:10320C00314802F01AF9002210212F4802F015F96A
:10321C002E4B6FF07F421A602D4B2E4A1A602E4BAC
:10322C004FF47F421A60FEF71FF94FF47A7001F0E9
:10323C0099F9FEF7F5F90A2001F094F92320FFF72C
:10324C0097F9052001F08EF96420FEF7EDFFFEF7EB
:10325C00C5FB01211C4802F0D9F80346012B03D110
:10326C000623C7F8C43102E03223C7F8C431002367
:10327C0087F8C3310221144802F0C8F80346002B2A
:10328C0002D1012387F8C3314FF48051134802F067
:10329C00BDF8034687F8C23197F8C231012B21D112
:1032AC000F4B01221A7020E0C4050020C805002035
:1032BC00CC050020D005002000100240D4050020D1
:1032CC00D8050020DC050020000C01400000002087
:1032DC000400002000FFFF0008000020000801404F
:1032EC00F30000206E4B00221A706E4800F0A8FD0F
:1032FC0003466D4A13606D4800F0A2FD03466C4A0C
:10330C0013606C4800F09CFD03466B4A13606B48DD
:10331C0000F096FD03466A4A13606A4800F090FD7F
:10332C000346694A1360694800F08AFD0346684AFF
:10333C001360684800F084FD0346674A13606749D0
:10334C00674800F097FD584B1B68664A1360584B52
:10335C001B68654A1360584B1B68644A1360584BD2
:10336C001B68634A1360584B1B68624A1360584BC6
:10337C001B68614A1360584B1B68604A13605749BD
:10338C005F4804F043F8484B1B68042B03D9464BA9
:10339C001B68322B50D95B4B1B68434A13605A4B4A
:1033AC001B68434A1360594B1B68434A1360584BC4
:1033BC001B68434A1360574B1B68434A1360564BB8
:1033CC001B68434A1360554B1B68434A13605449AE
:1033DC00424804F01BF8334800F060FD324B1B6888
:1033EC001946304800F0DCFC314B1B6819462F485D
:1033FC0000F0D6FC304B1B6819462E4800F0D0FC70
:10340C002F4B1B6819462D4800F0CAFC2E4B1B682D
:10341C0019462C4800F0C4FC2D4B1B6819462B4850
:10342C0000F0BEFC2C4B1B6819462A4800F0B8FC77
:10343C002A492B4800F0DCFC1B4B1B68314A1360FB
:10344C001B4B1B68304A13601B4B1B682F4A1360C5
:10345C001B4B1B682E4A13601B4B1B682D4A1360B9
:10346C001B4B1B682C4A13601B4B1B682B4A1360AD
:10347C001A492B4803F0CAFF2A492948FCF740FE99
:10348C000346002B02D1FDF7A7FA56E02649244843
:10349C00FCF736FE0346002B48D1FDF726FD4CE029
:1034AC00F300002000FC0008A005002004FC00082C
:1034BC00A405002008FC0008A80500200CFC00084E
:1034CC00AC05002010FC0008B005002014FC00081E
:1034DC00B405002018FC0008B8050020BC0500202D
:1034EC001CFC00087C0500208005002084050020C1
:1034FC00880500208C0500209005002094050020F4
:10350C009805002014000020180000201C0000204A
:10351C002000002024000020280000202C00002087
:10352C0030000020D07E0008D87E00089B4B9C4ABF
:10353C001A6000221A71FDF74FFA00230293002340
:10354C0001930023009340F2BF3340F28F1240F2FC
:10355C00BF310020FEF708F90023029300230193EA
:10356C000023009340F2BE3340F28F1240F2BE3182
:10357C000020FEF7F9F800230293002301930023A7
:10358C00009340F2BD3340F28F1240F2BD31002067
:10359C00FEF7EAF800230293002301930023009323
:1035AC004FF46F7340F28F124FF46F710020FEF7DF
:1035BC00DBF800230293002301930023009340F2D5
:1035CC00BB3340F28F1240F2BB310020FEF7CCF837
:1035DC0000230293002301930023009340F2BA339B
:1035EC0040F28F1240F2BA310020FEF7BDF80023F2
:1035FC000293002301930023009340F2B93340F26D
:10360C008F1240F2B9310020FEF7AEF8002302937E
:10361C0000230193002300934FF46E7340F28F123A
:10362C004FF46E710020FEF79FF800F063FCFEF77C
:10363C00D5F95C4B01221A7000BF5B4B9B6803F001
:10364C008003002BF9D1584B1B68574A23F04003D9
:10365C001360564B1B68554A23F00103136023205B
:10366C00FFF7C4F8FFF754F9FFF7E6FA4F4B1B6866
:10367C004E4A43F0010313604B4B1B684A4A43F01C
:10368C00400313602320FFF795F8494B01221A7071
:10369C00484B1B78DBB2002BCED0454B1B78DBB2F2
:1036AC00002BC9D0434B00221A70414B00221A70D8
:1036BC00414B1B7883F00103DBB2002B52D000BFCF
:1036CC003E4B9B6803F08003002BF9D13B4B1B68EE
:1036DC003A4A23F040031360394B1B68384A23F0F5
:1036EC0001031360374B1B68364A23F00103136048
:1036FC002420FFF77BF80E20FFF778F80F20FFF758
:10370C0075F8314BDB68304A83F40053D360FCF717
:10371C0053FFFCF74DFDFCF7CBFDFCF715FE00BF8E
:10372C00214B9B6803F08003002BF9D1244B1B68C1
:10373C00234A43F001031360224B1B68214A43F0D8
:10374C00010313601D4B1B681C4A43F040031360BC
:10375C002420FFF72FF80E20FFF72CF80F20FFF78F
:10376C0029F869E74FF40061184801F04FFE034651
:10377C0087F8C1314FF48051144801F047FE0346DD
:10378C0087F8C03197F8C131012B23D197F8C0319C
:10379C00002B1FD10E4B00221A70D2E230000020F9
:1037AC00416461465B05002000300140300002405E
:1037BC00DE000020DD000020F30000200038004077
:1037CC004400024058000240001001400008014033
:1037DC00F500002097F8C131002B7FF42DAF97F83E
:1037EC00C031002B7FF428AF97F8C12197F8C03176
:1037FC009A427FF421AFAD4B1B7883F00103DBB20F
:10380C00002B00F09882AA4B1B78002B14BF0123CD
:10381C000023DBB283F00103DBB203F00103DAB265
:10382C00A34B1A70A34B1B780133A34A127893FB5A
:10383C00F2F101FB02F29B1ADAB29E4B1A709F4B0B
:10384C001B7883F00103DBB2002B00F0D580994B81
:10385C001B781A469A4B53F822309A4A1360954BB0
:10386C001B781A46984B53F82230984A1360914BA8
:10387C001B781A46964B53F82230964A13608D4BA0
:10388C001B781A46944B53F82230944A1360894B98
:10389C001B781A46924B53F82230924A1360854B90
:1038AC001B781A46904B53F82230904A1360814B88
:1038BC001B781A468E4B53F822308E4A13607D4B80
:1038CC001B781A4613469B0013448B4A1344194623
:1038DC008A4803F09BFD7B4B1B68894A13607B4B2A
:1038EC001B68884A13607B4B1B68874A13607B4BB1
:1038FC001B68864A13607B4B1B68854A13607B4BA5
:10390C001B68844A13607B4B1B68834A13607B499A
:10391C00824803F07BFDFDF75FF8052000F063FBA8
:10392C00FEF788F9052000F05EFB784B1B689BB214
:10393C001846FEF7B0FB052000F055FB744B1B68D6
:10394C009BB21846FEF7CAFB052000F04CFB714BEE
:10395C001B689BB21846FEF7DDFB052000F043FB0D
:10396C00674B1B689BB21846FEF7F0FB052000F076
:10397C003AFB644B1B689BB21846FEF701FC052012
:10398C0000F031FB604B1B689BB21846FEF70CFC39
:10399C00052000F028FB624800F080FA494B1B68B8
:1039AC0019465F4800F0FCF9484B1B6819465D4806
:1039BC0000F0F6F9474B1B6819465B4800F0F0F92C
:1039CC00464B1B681946594800F0EAF9454B1B68F1
:1039DC001946574800F0E4F9444B1B681946554802
:1039EC0000F0DEF9434B1B681946534800F0D8F938
:1039FC004249524800F0FCF9062000F0F4FA00218C
:103A0C004FF47F40FEF78CF8002307938C2306932A
:103A1C0004230593012304930023039300230293AF
:103A2C000123019300230093002300220221002094
:103A3C00FDF71FFF424B07F5D2741D460FCD0FC487
:103A4C0095E8030020600434218007F5D2731846F2
:103A5C00FEF74AF8062000F0C6FA00216FF07F400E
:103A6C00FEF75EF800230793AA230693042305931D
:103A7C000123049300230393002302930123019356
:103A8C00002300930023002201210020FDF7F1FE0A
:103A9C0007F5E473A3F5C6732A4A1C4615460FCDE9
:103AAC000FC40FCD0FC40FCD0FC44DE0F500002097
:103ABC00F4000020F600002012000020110000206D
:103ACC0000800008A005002018800008A405002034
:103ADC0030800008A805002048800008AC050020B4
:103AEC0060800008B005002078800008B405002034
:103AFC0090800008B8050020A8800008BC050020B4
:103B0C0014000020180000201C00002020000020C1
:103B1C0024000020280000202C0000203000002071
:103B2C0000FC000804FC000808FC00080CFC000861
:103B3C0010FC000814FC000818FC00081CFC000811
:103B4C00407F0008587F00082B68236007F13C0376
:103B5C001846FDF7C9FF062000F045FA002307932D
:103B6C00C323069304230593012304930023039397
:103B7C0000230293012301930023009300230022CE
:103B8C0001210020FDF775FE07F5E473A3F5AC7376
:103B9C006C4A1C4615460FCD0FC40FCD0FC40FCD6C
:103BAC000FC42B68236007F170031846FDF79CFFC8
:103BBC00062000F018FA00230793FA230693042337
:103BCC000593012304930023039300230293012301
:103BDC000193002300930023002201210020FDF714
:103BEC0048FE07F5E473A3F5DE73574A1C461546E9
:103BFC000FCD0FC40FCD0FC495E80F0007C4238061
:103C0C0002341B0C237007F10C031846FDF76CFFF4
:103C1C00062000F0E8F900214C48FDF781FF002355
:103C2C00079340F213130693042305930123049383
:103C3C000023039300230293012301930023009399
:103C4C000023002201210020FDF713FE404B1B68CE
:103C5C007B60404B1B68404A1268404909684048E9
:103C6C000068404C2468404D2D6807F1A406DFF82D
:103C7C00FCC0CDF818C005950494039002910192F4
:103C8C0000937B683A4A8021304603F00DFB07F124
:103C9C00A4031846FDF728FF062000F0A4F9354BC5
:103CAC001B7883F00103DBB2002B41D000214FF4D1
:103CBC007F40FDF735FF002307934FF4967306936F
:103CCC0004230593012304930023039300230293FD
:103CDC0001230193002300930023002201210020E3
:103CEC00FDF7C7FD244B1B687B60244B1B68244AE3
:103CFC0012682449096824480068244C2468244D1F
:103D0C002D6807F59276DFF88CC0CDF818C00595B4
:103D1C00049403900291019200937B681E4A8021C7
:103D2C00304603F0C1FA07F592731846FDF7DCFE36
:103D3C00782000F058F9194B01221A700D4B002213
:103D4C001A7079E48C7F0008C07F000800FFFF0028
:103D5C007C050020800500208405002088050020BB
:103D6C008C0500209005002094050020980500206B
:103D7C00E07E000811000020A0050020A405002012
:103D8C00A8050020AC050020B0050020B4050020DB
:103D9C00B8050020BC050020107F0008F5000020AD
:103DAC00B0B584B000AF786039607B680E4A93423E
:103DBC0003D37B680D4A934201D9012310E001F033
:103DCC0011F83B6800221C46154622462B467968A2
:103DDC00022000F097FF0346FB7301F029F8FB7BF0
:103DEC0018461037BD46B0BD00FC0008FFFF0008A8
:103DFC00B0B584B000AF786039603868FCF78AF9E8
:103E0C000346042B01D9012315E00023BB603B685A
:103E1C001B68BB6000F0E6FFBB6800221C46154621
:103E2C0022462B467968022000F06CFF0346FB7398
:103E3C0000F0FEFFFB7B18461037BD46B0BD0000FE
:103E4C0080B483B000AF78607B68084A934203D398
:103E5C007B68074A934202D94FF0FF3301E07B683D
:103E6C001B6818460C37BD4680BC704700FC000828
:103E7C00FFFF000880B485B000AF786039607B68C4
:103E8C001B68FB60FA683B681A603B6804330022CD
:103E9C001A7000BF1437BD4680BC704780B588B01F
:103EAC0000AF78607B68114A934203D37B68104A59
:103EBC00934201D9012314E000F094FF0023FB602E
:103ECC007B687B610123BB6107F1080207F10C03DE
:103EDC001146184601F06EF80346FB7700F0A8FF78
:103EEC00FB7F18462037BD4680BD00BF00FC000894
:103EFC00FFFF000880B582B000AF154B00221A609E
:103F0C00144B00221A60144B00221A6000F020FBA4
:103F1C00786004E00E4B1B6801330D4A136000F00F
:103F2C0017FB02467B68D31AB3F57A7FF2D3084BA2
:103F3C001B68084A1360084B01221A60FCF74AFC04
:103F4C004FF4FA6000F00EFB00BF0837BD4680BD91
:103F5C00E0050020E4050020E805002080B590B0C5
:103F6C0000AF07F1180328220021184603F004FAC9
:103F7C003B1D00221A605A609A60DA601A610123B4
:103F8C00BB614FF48033FB6100233B620123BB62B6
:103F9C0002237B634FF48033BB634FF4E013FB636A
:103FAC0007F11803184601F083FA0346002B01D0E1
:103FBC0000F02EF80F237B600223BB600023FB6014
:103FCC004FF480633B6100237B613B1D022118464B
:103FDC0001F0F0FC0346002B01D000F019F800BFF3
:103FEC004037BD4680BD80B584B000AF786000F02E
:103FFC00AFFAF86000BF00F0ABFA0246FB68D31AC8
:10400C007A689A42F7D800BF00BF1037BD4680BD12
:10401C0080B400AF72B600BFFEE7000080B500AF01
:10402C00174B184A1A60164B4FF482725A60144B95
:10403C0000229A60124B0022DA60114B02221A61A4
:10404C000F4B01225A610E4B4FF400729A610C4BCC
:10405C001022DA610A4B00221A62094B00225A62C2
:10406C00074B00229A62064B0A22DA62044801F0DE
:10407C0039FE0346002B01D0FFF7CAFF00BF80BDFD
:10408C001C0600200030014080B500AF164B174ACB
:10409C001A60154B00225A60134B4FF480629A60E1
:1040AC00114B0022DA60104B02221A610E4B0122D6
:1040BC005A610D4B4FF400729A610B4B00221A623D
:1040CC00094B00225A62084B00229A62064B0A22C4
:1040DC00DA62054801F006FE0346002B01D0FFF71B
:1040EC0097FF00BF80BD00BF740600200038004061
:1040FC0080B58AB000AF786007F1180300221A600F
:10410C005A609A60DA607B681B686B4A934276D17E
:10411C006A4B9B69694A43F480539361674B9B6973
:10412C0003F480537B617B69644B9B69634A43F066
:10413C0004039361614B9B6903F004033B613B698E
:10414C002023BB610223FB6100233B6203237B62C0
:10415C0007F1180319465A4800F0D4FF4023BB61FD
:10416C000023FB6101233B6203237B6207F11803ED
:10417C001946534800F0C6FF8023BB610223FB6144
:10418C0000233B6203237B6207F1180319464C485A
:10419C0000F0B8FF1023BB610123FB6100233B62DD
:1041AC0003237B6207F118031946454800F0AAFF68
:1041BC00444B454A1A60434B10225A60414B002233
:1041CC009A60404B8022DA603E4B00221A613D4BD4
:1041DC0000225A613B4B00229A613A4B0022DA6171
:1041EC00384800F0F1FA0346002B01D0FFF710FF1E
:1041FC007B68344A9A64334A7B68536257E07B6825
:10420C001B68324A934252D12C4BDB692B4A43F444
:10421C008043D361294BDB6903F48043FB60FB686B
:10422C00264B9B69254A43F008039361234B9B69FA
:10423C0003F00803BB60BB684FF42043BB61002351
:10424C00FB6100233B6207F118031946204800F07C
:10425C0059FF204B204A1A601E4B00225A601D4BFE
:10426C0000229A601B4B8022DA601A4B00221A61E2
:10427C00184B00225A61174B00229A61154B0022F1
:10428C00DA61144800F0A0FA0346002B01D0FFF7C6
:10429C00BFFE7B680F4ADA640E4A7B6853620022C9
:1042AC000021242000F059FA242000F072FA00BFFB
:1042BC002837BD4680BD00BF0030014000100240D1
:1042CC0000080140CC0600203000024000380040BD
:1042DC00000C0140100700204400024080B485B05F
:1042EC0000AF154B9B69144A43F001039361124BC9
:1042FC009B6903F00103BB60BB680F4BDB690E4A83
:10430C0043F08053D3610C4BDB6903F080537B602B
:10431C007B680A4B5B68FB60FB6823F0E063FB6027
:10432C00FB6843F00073FB60044AFB68536000BFFA
:10433C001437BD4680BC704700100240000001409D
:10434C0080B400AFFEE780B400AFFEE780B400AFEE
:10435C00FEE780B400AFFEE780B400AFFEE780B4A8
:10436C0000AF00BFBD4680BC704780B400AF00BF3B
:10437C00BD4680BC704780B400AF00BFBD4680BC5A
:10438C00704780B500AF00F0D1F800BF80BD0000D1
:10439C0080B500AF024800F081FB00BF80BD00BFBC
:1043AC00CC06002080B500AF024800F077FB00BFC0
:1043BC0080BD00BF1007002080B500AF024802F09E
:1043CC00F3FB00BF80BD00BF7406002080B500AFBA
:1043DC00114B1B78002B19D0104802F0A5FB0F488D
:1043EC0002F0BEFA0E4B1B690D4A43F48043136175
:1043FC000B4B1B690A4A23F480431361074801F0F5
:10440C0071FCEB220749054802F0E0F84FF400601C
:10441C0001F02CF800BF80BD5B0500207406002065
:10442C0000100240F402002080B586B000AF786026
:10443C00144A154BD31A7B617B693B61134B1B6888
:10444C00002B02D1114B124A1A60104B1A687B6870
:10445C0013443A699A4207D202F0ACFF03460C228D
:10446C001A604FF0FF3309E0084B1B68FB60074BE9
:10447C001A687B681344054A1360FB6818461837A2
:10448C00BD4680BD005000200004000054070020F1
:10449C00C808002080B400AF00BFBD4680BC704788
:1044AC0080B500AF084B1B68074A43F0100313603C
:1044BC00032000F047F90F2000F008F8FFF70EFF7B
:1044CC000023184680BD00BF0020024080B582B09A
:1044DC0000AF7860124B1A68124B1B7819464FF4D8
:1044EC007A73B3FBF1F3B2FBF3F3184600F05FF908
:1044FC000346002B01D001230EE07B680F2B0AD85A
:10450C00002279684FF0FF3000F027F9064A7B68EB
:10451C001360002300E0012318460837BD4680BD18
:10452C0038000020400000203C00002080B400AF88
:10453C00054B1B781A46054B1B681344034A136042
:10454C0000BFBD4680BC70474000002058070020CB
:10455C0080B400AF024B1B681846BD4680BC704748
:10456C005807002080B584B000AF7860FFF7F0FFEB
:10457C00B8607B68FB60FB68B3F1FF3F05D00A4B6A
:10458C001B781A46FB681344FB6000BFFFF7E0FF83
:10459C000246BB68D31AFA689A42F7D800BF00BF2C
:1045AC001037BD4680BD00BF4000002080B485B0F0
:1045BC0000AF78607B6803F00703FB600C4BDB6893
:1045CC00BB60BA684FF6FF031340BB60FB681A026E
:1045DC00BB68134343F0BF6343F40033BB60044A2E
:1045EC00BB68D36000BF1437BD4680BC704700BFAA
:1045FC0000ED00E080B400AF044BDB681B0A03F055
:10460C0007031846BD4680BC704700BF00ED00E0B4
:10461C0080B483B000AF0346FB7197F90730002BD1
:10462C000BDBFB7903F01F02064997F907305B0996
:10463C00012000FA02F241F8232000BF0C37BD46DE
:10464C0080BC704700E100E080B483B000AF03464B
:10465C003960FB7197F90730002B0ADB3B68DAB243
:10466C000C4997F907301201D2B20B4483F800239E
:10467C000AE03B68DAB20849FB7903F00F03043B0C
:10468C001201D2B20B441A7600BF0C37BD4680BC67
:10469C00704700BF00E100E000ED00E080B489B09D
:1046AC0000AFF860B9607A60FB6803F00703FB6148
:1046BC00FB69C3F10703042B28BF0423BB61FB690F
:1046CC000433062B02D9FB69033B00E000237B611A
:1046DC004FF0FF32BB6902FA03F3DA43BB681A40AE
:1046EC007B699A404FF0FF317B6901FA03F3D943A0
:1046FC007B680B40134318462437BD4680BC70477B
:10470C0080B582B000AF78607B68013BB3F1807FED
:10471C0001D301230FE00A4A7B68013B53600F2150
:10472C004FF0FF30FFF790FF054B00229A60044BCF
:10473C0007221A60002318460837BD4680BD00BF0B
:10474C0010E000E080B582B000AF78607868FFF7C9
:10475C002DFF00BF0837BD4680BD80B586B000AFC9
:10476C000346B9607A60FB7300237B61FFF742FF5D
:10477C0078617A68B9687869FFF790FF024697F913
:10478C000F3011461846FFF75FFF00BF1837BD46C4
:10479C0080BD80B582B000AF0346FB7197F907303E
:1047AC001846FFF735FF00BF0837BD4680BD80B502
:1047BC0082B000AF78607868FFF7A2FF0346184616
:1047CC000837BD4680BD000080B485B000AF78606E
:1047DC000023FB607B68002B01D1012343E07B6845
:1047EC001B681A46224B1344224AA2FB03231B09C3
:1047FC009A007B681A647B681F4ADA637B68022222
:10480C0083F821207B681B681B68FB60FB6823F422
:10481C007F5323F03003FB607B685A687B689B688E
:10482C001A437B68DB681A437B681B691A437B68F5
:10483C005B691A437B689B691A437B68DB6913438A
:10484C00FA681343FB607B681B68FA681A607B6824
:10485C0000229A637B68012283F821207B68002266
:10486C0083F82020002318461437BD4680BC7047BF
:10487C00F8FFFDBFCDCCCCCC0000024080B586B09B
:10488C0000AFF860B9607A603B600023FB75FB6891
:10489C0093F82030012B01D102234AE0FB6801225E
:1048AC0083F82020FB6893F82130012B3AD1FB6868
:1048BC00022283F82120FB6800229A63FB681B68A4
:1048CC001A68FB681B6822F001021A603B687A6860
:1048DC00B968F86800F0E8F9FB68DB6A002B08D0CF
:1048EC00FB681B681A68FB681B6842F00E021A60B2
:1048FC000FE0FB681B681A68FB681B6822F0040257
:10490C001A60FB681B681A68FB681B6842F00A0295
:10491C001A60FB681B681A68FB681B6842F001028E
:10492C001A6005E0FB68002283F820200223FB7547
:10493C00FB7D18461837BD4680BD80B485B000AFEE
:10494C0078600023FB737B6893F82130022B08D02E
:10495C007B6804229A637B68002283F82020012361
:10496C0020E07B681B681A687B681B6822F00E02CB
:10497C001A607B681B681A687B681B6822F001024E
:10498C001A607B681A6C7B68DB6B012101FA02F2FE
:10499C005A607B68012283F821207B68002283F80F
:1049AC002020FB7B18461437BD4680BC70470000A6
:1049BC0080B584B000AF78600023FB737B6893F8FC
:1049CC002130022B05D07B6804229A630123FB73F0
:1049DC0051E07B681B681A687B681B6822F00E022A
:1049EC001A607B681B681A687B681B6822F00102DE
:1049FC001A607B681B68224A934229D07B681B682B
:104A0C00204A934222D07B681B681F4A93421AD0DB
:104A1C007B681B681D4A934212D07B681B681C4A3A
:104A2C0093420AD07B681B681A4A934202D14FF416
:104A3C0080130EE04FF080730BE04FF4803308E0EE
:104A4C004FF4805305E04FF4807302E0102300E034
:104A5C000123114A53607B68012283F821207B6873
:104A6C00002283F820207B685B6B002B03D07B68D3
:104A7C005B6B78689847FB7B18461037BD4680BD4A
:104A8C00080002401C00024030000240440002407A
:104A9C00580002406C0002400000024080B584B017
:104AAC0000AF78607B68DB6B1B68FB607B681B6806
:104ABC001B68BB607B681B6C04229A40FB6813402C
:104ACC00002B4FD0BB6803F00403002B4AD07B684B
:104ADC001B681B6803F02003002B07D17B681B6845
:104AEC001A687B681B6822F004021A607B681B68DA
:104AFC00664A934229D07B681B68654A934222D050
:104B0C007B681B68634A93421AD07B681B68624AB5
:104B1C00934212D07B681B68604A93420AD07B6830
:104B2C001B685F4A934202D14FF480030EE04FF0B2
:104B3C0080630BE04FF4802308E04FF4804305E0E2
:104B4C004FF4806302E0402300E00423554A536095
:104B5C007B68DB6A002B00F094807B68DB6A7868EA
:104B6C0098478EE07B681B6C02229A40FB681340CE
:104B7C00002B56D0BB6803F00203002B51D07B688E
:104B8C001B681B6803F02003002B0BD17B681B6890
:104B9C001A687B681B6822F00A021A607B68012283
:104BAC0083F821207B681B68384A934229D07B68A4
:104BBC001B68374A934222D07B681B68354A934264
:104BCC001AD07B681B68344A934212D07B681B68EE
:104BDC00324A93420AD07B681B68314A934202D115
:104BEC004FF400130EE04FF000730BE04FF4003362
:104BFC0008E04FF4005305E04FF4007302E020236B
:104C0C0000E00223274A53607B68002283F82020AF
:104C1C007B689B6A002B34D07B689B6A78689847CA
:104C2C002FE07B681B6C08229A40FB681340002B1A
:104C3C0028D0BB6803F00803002B23D07B681B68CB
:104C4C001A687B681B6822F00E021A607B681A6C6B
:104C5C007B68DB6B012101FA02F25A607B6801224E
:104C6C009A637B68012283F821207B68002283F8F9
:104C7C0020207B681B6B002B04D07B681B6B786837
:104C8C00984700BF00BF1037BD4680BD08000240EA
:104C9C001C00024030000240440002405800024018
:104CAC006C0002400000024080B485B000AFF86098
:104CBC00B9607A603B60FB681A6CFB68DB6B0121A6
:104CCC0001FA02F25A60FB681B683A685A60FB688A
:104CDC005B68102B08D1FB681B687A689A60FB68CC
:104CEC001B68BA68DA6007E0FB681B68BA689A60F0
:104CFC00FB681B687A68DA6000BF1437BD4680BC5D
:104D0C0070470000F0B587B000AFF860B960C7E934
:104D1C0000230123FB750023BB7500237B752F4BF0
:104D2C001B7E012B01D1022354E02C4B01221A765D
:104D3C004CF2503000F0A8F80346FB75FB7D002BBD
:104D4C0044D1FB68012B02D101237B7507E0FB6882
:104D5C00022B02D102237B7501E004237B75002317
:104D6C00BB752DE0BB7D5A00BB6802EB030CBB7D11
:104D7C001901D7E90023C1F12006A1F1200022FA84
:104D8C0001F403FA06F6344323FA00F0044323FA41
:104D9C0001F5A3B21946604600F05AF84CF25030B7
:104DAC0000F072F80346FB750D4B1B690C4A23F09F
:104DBC0001031361FB7D002B07D1BB7D0133BB7558
:104DCC00BA7D7B7D9A42CDD300E000BF034B00221D
:104DDC001A76FB7D18461C37BD46F0BD60070020D7
:104DEC000020024080B483B000AF0023FB710D4B58
:104DFC001B6903F08003002B0DD00A4B0A4A5A6042
:104E0C00084B0A4A5A60074B1B6903F08003002BBE
:104E1C0001D00123FB71FB7918460C37BD4680BCD1
:104E2C00704700BF0020024023016745AB89EFCDDE
:104E3C0080B400AF054B1B69044A43F08003136137
:104E4C0000231846BD4680BC704700BF00200240BE
:104E5C0080B483B000AF78600B467B80084B002297
:104E6C00DA61084B1B69074A43F0010313617B6845
:104E7C007A881A8000BF0C37BD4680BC704700BFD3
:104E8C00600700200020024080B584B000AF78603D
:104E9C00FFF75EFBF86010E07B68B3F1FF3F0CD0CE
:104EAC007B68002B07D0FFF753FB0246FB68D31A35
:104EBC007A689A4201D2032325E0154BDB6803F094
:104ECC000103002BE8D1124BDB6803F02003002B0D
:104EDC0002D00F4B2022DA600D4BDB6803F010037D
:104EEC00002B0BD10A4BDB6903F00103002B05D11E
:104EFC00074BDB6803F00403002B03D000F00AF827
:104F0C00012300E0002318461037BD4680BD00BFCA
:104F1C000020024080B483B000AF00237B60234BA1
:104F2C00DB6803F01003002B09D0214BDB6943F045
:104F3C0002031F4AD3617B6843F010037B601B4B59
:104F4C00DB6803F00403002B09D0194BDB6943F039
:104F5C000103174AD3617B6843F004037B60134B56
:104F6C00DB6903F00103002B0BD0114BDB6943F021
:104F7C0004030F4AD3610D4BDB690C4A23F0010388
:104F8C00D3617B6840F20112934206D1074BDB6977
:104F9C00064A23F00103D36102E0044A7B68D36024
:104FAC0000BF0C37BD4680BC704700BF00200240DC
:104FBC006007002080B584B000AF786039600123B1
:104FCC00FB730023BB602F4B1B7E012B01D10223F3
:104FDC0053E02C4B01221A767B681B68022B16D1EE
:104FEC004CF25030FFF750FF0346002B41D101200B
:104FFC0000F04CF84CF25030FFF746FF0346FB73C1
:10500C00214B1B69204A23F00403136131E04CF25D
:10501C005030FFF739FF0346002B2AD13B684FF085
:10502C00FF321A607B689B68BB6019E0B86800F0BF
:10503C0049F84CF25030FFF727FF0346FB73124B35
:10504C001B69114A23F002031361FB7B002B03D075
:10505C003B68BA681A600CE0BB6803F58063BB6000
:10506C007B68DB689A027B689B681344BA689A4237
:10507C00DCD3044B00221A76FB7B18461037BD4656
:10508C0080BD00BF600700200020024080B483B0C8
:10509C0000AF7860094B0022DA61094B1B69084AA2
:1050AC0043F004031361064B1B69054A43F04003AC
:1050BC00136100BF0C37BD4680BC704760070020F1
:1050CC000020024080B483B000AF78600B4B00220C
:1050DC00DA610B4B1B690A4A43F002031361084A5D
:1050EC007B685361064B1B69054A43F0400313610F
:1050FC0000BF0C37BD4680BC704700BF6007002066
:10510C000020024080B48BB000AF7860396000237F
:10511C007B6200233B6269E101227B6A02FA03F3A2
:10512C00FB613B681B68FA691340BB61BA69FB6998
:10513C009A4240F058813B685B689A4A93425ED031
:10514C00984A934275D8984A934258D0964A9342BB
:10515C006FD8964A934252D0944A934269D8944A53
:10516C0093424CD0924A934263D8924A934246D08F
:10517C00904A93425DD8122B2AD8122B59D801A2EF
:10518C0052F823F00B520008E5510008F7510008C3
:10519C00395200083F5200083F5200083F520008A5
:1051AC003F5200083F5200083F5200083F5200088F
:1051BC003F5200083F5200083F5200083F5200087F
:1051CC003F5200083F520008ED5100080152000800
:1051DC00794A934213D02CE03B68DB683B6229E0B0
:1051EC003B68DB6804333B6224E03B68DB680833D4
:1051FC003B621FE03B68DB680C333B621AE03B68A8
:10520C009B68002B02D104233B6213E03B689B6834
:10521C00012B05D108233B627B68FA691A6109E00E
:10522C0008233B627B68FA695A6103E000233B6206
:10523C0000E000BFBB69FF2B01D87B6801E07B68F5
:10524C0004337B61BB69FF2B02D87B6A9B0002E0B5
:10525C007B6A083B9B003B617B691A680F213B69A9
:10526C0001FA03F3DB431A40396A3B6901FA03F391
:10527C001A437B691A603B685B6803F08053002B10
:10528C0000F0B1804D4B9B694C4A43F00103936194
:10529C004A4B9B6903F00103BB60BB68484A7B6ABD
:1052AC009B08023352F82330FB607B6A03F0030344
:1052BC009B000F2202FA03F3DB43FA681340FB60F6
:1052CC007B68404A934213D07B683F4A93420DD08F
:1052DC007B683E4A934207D07B683D4A934201D19A
:1052EC00032306E0042304E0022302E0012300E090
:1052FC0000237A6A02F0030292009340FA68134387
:10530C00FB602F497B6A9B080233FA6841F8232023
:10531C003B685B6803F48033002B06D02D4B1A6876
:10532C002C49BB6913430B6006E02A4B1A68BB6916
:10533C00DB43284913400B603B685B6803F4003384
:10534C00002B06D0234B5A682249BB6913434B6090
:10535C0006E0204B5A68BB69DB431E4913404B6087
:10536C003B685B6803F48013002B06D0194B9A68DA
:10537C001849BB6913438B6006E0164B9A68BB69EE
:10538C00DB43144913408B603B685B6803F40013E8
:10539C00002B21D00F4BDA680E49BB691343CB604D
:1053AC0021E000BF0000321000003110000022107C
:1053BC00000021100000121000001110001002401B
:1053CC000000014000080140000C014000100140A9
:1053DC0000140140000401400B4BDA68BB69DB434D
:1053EC0009491340CB607B6A01337B623B681A68C6
:1053FC007B6A22FA03F3002B7FF48EAE00BF00BF52
:10540C002C37BD4680BC70470004014080B485B089
:10541C0000AF78600B467B807B689A687B88134072
:10542C00002B02D00123FB7301E00023FB73FB7BF9
:10543C0018461437BD4680BC704780B483B000AFAB
:10544C0078600B467B8013467B707B78002B03D0F7
:10545C007A887B681A6103E07B881A047B681A617E
:10546C0000BF0C37BD4680BC7047000080B582B0D1
:10547C0000AF0346FB80084B5A69FB881340002B96
:10548C0006D0054AFB885361FB88184600F006F8E5
:10549C0000BF0837BD4680BD0004014080B483B016
:1054AC0000AF0346FB8000BF0C37BD4680BC704785
:1054BC0080B586B000AF78607B68002B01D10123EA
:1054CC0072E27B681B6803F00103002B00F08780FD
:1054DC00924B5B6803F00C03042B0CD08F4B5B6876
:1054EC0003F00C03082B12D18C4B5B6803F4803354
:1054FC00B3F5803F0BD1894B1B6803F40033002BB1
:10550C006CD07B685B68002B68D101234CE27B6814
:10551C005B68B3F5803F06D1804B1B687F4A43F430
:10552C00803313602EE07B685B68002B0CD17B4BC7
:10553C001B687A4A23F480331360784B1B68774AD4
:10554C0023F4802313601DE07B685B68B3F5A02F08
:10555C000CD1724B1B68714A43F4802313606F4B60
:10556C001B686E4A43F4803313600BE06B4B1B6873
:10557C006A4A23F480331360684B1B68674A23F430
:10558C00802313607B685B68002B13D0FEF7E0FF71
:10559C00386108E0FEF7DCFF02463B69D31A642B46
:1055AC0001D9032300E25D4B1B6803F40033002B8D
:1055BC00F0D014E0FEF7CCFF386108E0FEF7C8FF2E
:1055CC0002463B69D31A642B01D90323ECE1534BFC
:1055DC001B6803F40033002BF0D100E000BF7B68A4
:1055EC001B6803F00203002B63D04C4B5B6803F089
:1055FC000C03002B0BD0494B5B6803F00C03082BFE
:10560C001CD1464B5B6803F48033002B16D1434B03
:10561C001B6803F00203002B05D07B681B69012B70
:10562C0001D00123C0E13D4B1B6823F0F8027B68DD
:10563C005B69DB00394913430B603AE07B681B69FB
:10564C00002B20D0364B01221A60FEF781FF386107
:10565C0008E0FEF77DFF02463B69D31A022B01D905
:10566C000323A1E12D4B1B6803F00203002BF0D0A8
:10567C002A4B1B6823F0F8027B685B69DB00274927
:10568C0013430B6015E0264B00221A60FEF760FFF7
:10569C00386108E0FEF75CFF02463B69D31A022B27
:1056AC0001D9032380E11D4B1B6803F00203002B7F
:1056BC00F0D17B681B6803F00803002B3AD07B68A1
:1056CC009B69002B19D0174B01221A60FEF740FF83
:1056DC00386108E0FEF73CFF02463B69D31A022B07
:1056EC0001D9032360E10D4B5B6A03F00203002B2D
:1056FC00F0D0012000F0D8FA1CE00A4B00221A600E
:10570C00FEF726FF38610FE0FEF722FF02463B69E9
:10571C00D31A022B08D9032346E100BF0010024024
:10572C000000424280044242924B5B6A03F0020347
:10573C00002BE9D17B681B6803F00403002B00F0FD
:10574C00A6800023FB758B4BDB6903F08053002B89
:10575C000DD1884BDB69874A43F08053D361854B6D
:10576C00DB6903F08053BB60BB680123FB75824B84
:10577C001B6803F48073002B18D17F4B1B687E4A87
:10578C0043F480731360FEF7E3FE386108E0FEF724
:10579C00DFFE02463B69D31A642B01D9032303E1D4
:1057AC00754B1B6803F48073002BF0D07B68DB68AF
:1057BC00012B06D16F4B1B6A6E4A43F00103136237
:1057CC002DE07B68DB68002B0CD16A4B1B6A694AA5
:1057DC0023F001031362674B1B6A664A23F0040330
:1057EC0013621CE07B68DB68052B0CD1614B1B6AD8
:1057FC00604A43F0040313625E4B1B6A5D4A43F03C
:10580C00010313620BE05B4B1B6A5A4A23F0010342
:10581C001362584B1B6A574A23F0040313627B68CC
:10582C00DB68002B15D0FEF793FE38610AE0FEF71B
:10583C008FFE02463B69D31A41F28832934201D95A
:10584C000323B1E04B4B1B6A03F00203002BEED099
:10585C0014E0FEF77DFE38610AE0FEF779FE0246A1
:10586C003B69D31A41F28832934201D903239BE05E
:10587C00404B1B6A03F00203002BEED1FB7D012B86
:10588C0005D13C4BDB693B4A23F08053D3617B68E9
:10589C00DB69002B00F08780364B5B6803F00C0350
:1058AC00082B61D07B68DB69022B46D1334B00227D
:1058BC001A60FEF74DFE386108E0FEF749FE02461D
:1058CC003B69D31A022B01D903236DE0294B1B68CA
:1058DC0003F00073002BF0D17B681B6AB3F5803F9B
:1058EC0008D1244B5B6823F400327B689B68214908
:1058FC0013434B601F4B5B6823F474127B68196A6B
:10590C007B685B6A0B431B4913434B601B4B0122A7
:10591C001A60FEF71DFE386108E0FEF719FE02461C
:10592C003B69D31A022B01D903233DE0114B1B68B1
:10593C0003F00073002BF0D035E0104B00221A60FE
:10594C00FEF706FE386108E0FEF702FE02463B69F0
:10595C00D31A022B01D9032326E0064B1B6803F054
:10596C000073002BF0D11EE07B68DB69012B07D1A3
:10597C00012319E000100240007000406000424218
:10598C000B4B5B68FB60FB6803F480327B681B6A23
:10599C009A4206D1FB6803F470127B685B6A9A42E8
:1059AC0001D0012300E0002318461837BD4680BD06
:1059BC000010024080B584B000AF786039607B681D
:1059CC00002B01D10123D0E06A4B1B6803F00703C5
:1059DC003A689A4210D9674B1B6823F00702654955
:1059EC003B6813430B60634B1B6803F007033A6877
:1059FC009A4201D00123B8E07B681B6803F00203D4
:105A0C00002B20D07B681B6803F00403002B05D00F
:105A1C00594B5B68584A43F4E06353607B681B68DE
:105A2C0003F00803002B05D0534B5B68524A43F438
:105A3C0060535360504B5B6823F0F0027B689B68AB
:105A4C004D4913434B607B681B6803F00103002B2B
:105A5C0040D07B685B68012B07D1474B1B6803F474
:105A6C000033002B15D101237FE07B685B68022B90
:105A7C0007D1414B1B6803F00073002B09D10123A4
:105A8C0073E03D4B1B6803F00203002B01D1012393
:105A9C006BE0394B5B6823F003027B685B6836492B
:105AAC0013434B60FEF754FDF8600AE0FEF750FD1F
:105ABC000246FB68D31A41F28832934201D9032380
:105ACC0053E02D4B5B6803F00C027B685B689B001A
