:020000040800F2
:1000000000500020497300087D4400088344000824
:10001000894400088F44000895440008000000004F
:100020000000000000000000000000009B440008E9
:10003000A744000800000000B3440008BF440008C3
:100040009173000891730008917300089173000880
:100050009173000891730008917300089173000870
:100060009173000891730008917300089173000860
:1000700091730008CD440008E14400089173000822
:100080009173000891730008917300089173000840
:100090009173000891730008917300089173000830
:1000A0009173000891730008917300089173000820
:1000B000C928000891730008917300089173000823
:1000C0009173000891730008917300089173000800
:1000D000F5440008917300089173000891730008BB
:1000E00009450008917300089173000800000000A2
:1000F0000000000000000000000000000000000000
:0C01000000000000000000005FF808F1A3
:10010C0010F8012B11F8013B012A28BF9A42F7D0B5
:10011C00D01A7047034613F8012B002AFBD1181A8A
:10012C00013870470348044B834202D0034B03B1A0
:10013C00184770479000002090000020000000003D
:10014C000548064B1B1AD90F01EBA301491002D02D
:10015C00034B03B11847704790000020900000201B
:10016C000000000010B5064C237843B9FFF7DAFF06
:10017C00044B13B10448AFF300800123237010BD6E
:10018C009000002000000000847D000808B5054B9D
:10019C001BB105490548AFF30080BDE80840FFF7E7
:1001AC00CFBF00BF0000000094000020847D000839
:1001BC0080B5AAB008AFA64B1B680021184601F009
:1001CC0070FE07F1540300221A605A609A60DA60DC
:1001DC00C3F80F2007F1400300221A605A609A609E
:1001EC00DA60C3F80F204FF6FF73A7F886300123AF
:1001FC00C7F880300EE0D7F88030013B9549D7F82E
:10020C0080200A441178944AD154D7F880300133B5
:10021C00C7F88030D7F88030122BECDD8E4B0022E3
:10022C009A740023FB670CE08B4AFB6F13441B781A
:10023C00242B03D1FB6FA7F8863005E0FB6F01334D
:10024C00FB67FB6F112BEFDDB7F886304FF6FF72B3
:10025C00934200F0BF8000230793B6230693042338
:10026C000593012304930223039302230293012396
:10027C00019300230093002300220221002001F0AF
:10028C00D5FC07F12C0300221A605A609A60DA60E0
:10029C00C3F80F200123BB6712E06E4ABB6F1344F7
:1002AC001B78242B10D0BB6F013B6A49BA6F0A44F0
:1002BC00127888333B4403F85C2CBB6F0133BB676B
:1002CC00BB6F122BE9DD00E000BF07F12C031846D1
:1002DC0001F0CEFD052003F01EFF02F03EFA01F006
:1002EC002FFC01F01BFEB7F886301A4652001A4458
:1002FC00920013449B00A7F86A30B7F86A30079352
:10030C00B62306930423059301230493022303933A
:10031C000223029301230193002300930023002264
:10032C000221022001F082FC042001F053FA00208B
:10033C0001F078FA002001F075FA022003F0EBFED0
:10034C00B7F8863001339BB21A4652001A44920019
:10035C0013449B009BB20793B62306930423059387
:10036C000123049302230393022302930123019399
:10037C0000230093002300220221002001F056FCF0
:10038C0007F1180300221A605A609A60DA60C3F809
:10039C000F2000237B67B7F8863001333B670DE0F5
:1003AC007B6F5A1C7A672C493A6F0A44127888334F
:1003BC003B4403F8702C3B6F01333B673B6F122BB4
:1003CC00EEDD002387F82A3007F11803184601F0F8
:1003DC004FFD38E000230793B623069304230593BF
:1003EC000123049302230393022302930123019319
:1003FC0000230093002300220221002001F016FCB0
:10040C003B1D00221A605A609A60DA60C3F80F2014
:10041C000123FB660CE0FB6E013B0E49FA6E0A44AD
:10042C00127888333B4403F8842CFB6E0133FB6653
:10043C00FB6E122BEFDD0023BB753B1D184601F044
:10044C0017FD00F00BF800BF8837BD4680BD00BF1C
:10045C000000002094020020AC00002080B500AF0A
:10046C001349144806F0DEFF0346002B14BF01238A
:10047C000023DAB2104B1A700F4B1A780F4B1B7803
:10048C009A420ED00C4B1B78002B05D0002002F0AA
:10049C008BF802F075F804E0642002F085F802F0A5
:1004AC0057F8054B1A78054B1A7000BF80BD00BF7A
:1004BC009C7D0008AC000020BF000020C000002084
:1004CC0080B5A6B008AFAA4B1B680021184601F0F6
:1004DC00E8FC07F130031E220021184606F09AFFB3
:1004EC00A44A07F1240307CA03C31A8000237B67BD
:1004FC0013233B670CE03B6F133B9F493A6F0A4455
:10050C00127878333B4403F8482C3B6F01333B673C
:10051C003B6F2F2BEFDD002387F84D300023FB665C
:10052C0013E007F13002FB6E13441B78242B09D126
:10053C007B6F5A1C7A67FA6E92B25B0078333B443D
:10054C0023F8542CFB6E0133FB66FB6E1D2B02DC77
:10055C007B6F042BE5DD894A7B6F13600023BB6640
:10056C000CE0BB6E5B0078333B4433F8541C844A7C
:10057C00BB6E22F81310BB6E0133BB66BB6E042B33
:10058C00EFDD00237B660CE007F130027B6E134439
:10059C0019787C4A7B6E13440A461A707B6E0133C1
:1005AC007B667B6E1D2BEFDD0023A7F85A303C23B6
:1005BC00A7F858307B6F002B00F0B78000233B6608
:1005CC00AEE03B6E002B08D03B6E013B5B007833FA
:1005DC003B4433F8543C013300E000237B653A6E16
:1005EC007B6F9A4206DA3B6E5B0078333B4433F800
:1005FC00543C00E01E233B657A6D3B6D9A424BDA0E
:10060C003B1D1E220021184606F004FF7B6DFB6586
:10061C000EE0FA6D7B6DD31A07F13001FA6D0A44C6
:10062C00127878333B4403F8742CFB6D0133FB6573
:10063C00FA6D3B6D9A42ECDB3A6D7B6DD31A7833D5
:10064C003B44002203F8742C7B6D9BB21A4652007B
:10065C001344DB009AB2B7F858301344A7F85A3059
:10066C00B7F85A3007934FF48C7306930023059315
:10067C000123049301230393012302930123019388
:10068C0000230093002300220121002001F0CEFA68
:10069C003B1D184601F0ECFB052003F03CFD02F07D
:1006AC005CF801F089FA01F039FC3A6E7B6F9A42E2
:1006BC0033DA3B6E5B0078333B4433F8543C1A46D8
:1006CC0052001344DB00A7F84E30B7F85820B7F8A7
:1006DC004E301344A7F85A30B7F85A3007934FF4FA
:1006EC008C73069300230593012304930123039336
:1006FC000123029301230193002300930023002282
:10070C000121022001F092FA042001F063F800208C
:10071C0001F088F8002001F085F83B6E01333B6650
:10072C003A6E7B6F9A427FF74CAF7B6F002B1BD1DD
:10073C003C2307934FF48C730693002305930523F6
:10074C0004930123039301230293012301930023B8
:10075C000093002300220121002001F067FA07F129
:10076C003003184601F084FB00BF7837BD4680BDCE
:10077C0004000020A87D000894020020C400002082
:10078C00C8000020D400002080B5B0B008AF07F13D
:10079C0050034C220021184606F03CFE694B3B6589
:1007AC00694B7B65694BBB65694BFB65694B3B666C
:1007BC00694B7B66694BBB66694BFB66694B3B6758
:1007CC00694B7B67694BBB67694BFB67694BC7F828
:1007DC008030694BC7F88430684BC7F88830684B59
:1007EC00C7F88C30674BC7F89030674BC7F894301C
:1007FC003B1D4C220021184606F00CFE0A237B60A0
:10080C003E23BB607223FB60A6233B61DA237B6132
:10081C004FF48773BB614FF4A173FB614FF4BB734F
:10082C003B624FF4D5737B624FF4EF73BB6240F2C3
:10083C001223FB6240F246233B6340F27A237B6334
:10084C0040F2AE23BB6340F2E223FB6340F216336B
:10085C003B6440F24A337B644FF46173BB64002306
:10086C00C7F89C3064E0D7F89C300133474AD35C1E
:10087C00002B2DD0464B1B680021184601F011FBB4
:10088C00D7F89C309B00A0333B4453F89C3C9BB264
:10089C0007939623069300230593052304930123C2
:1008AC00039300230293012301930023009300235D
:1008BC0000220021002001F0B9F9D7F89C309B00F0
:1008CC00A0333B4453F8503C184601F0D1FA2AE0CF
:1008DC000021002001F0E5FAD7F89C309B00A033F2
:1008EC003B4453F89C3C9BB20793962306930023FE
:1008FC0005930523049301230393002302930123FF
:10090C00019300230093002300220021002001F01A
:10091C008DF9D7F89C309B00A0333B4453F8503CE6
:10092C00184601F0A5FAD7F89C300133C7F89C3073
:10093C00D7F89C30112B96DD00BF00BFA037BD4609
:10094C0080BD00BFB47D0008BC7D0008C47D0008DC
:10095C00CC7D0008D07D0008D87D0008E07D000823
:10096C00E87D0008F07D0008F47D0008FC7D00089F
:10097C00047E00080C7E0008147E00081C7E000813
:10098C00207E0008247E0008287E0008C402002077
:10099C0008000020F0B5BFB008AF734B1B78002BDC
:1009AC0000F0DD80714B1B680133704A13606F4B94
:1009BC001B688D2B5DD96C4B00221A7000214FF4F3
:1009CC007F4001F06EFAA02307934FF4A3730693B4
:1009DC000423059301230493002303930023029320
:1009EC000123019300230093002300220021002007
:1009FC0001F01CF95E4B07F13C041D460FCD0FC4F2
:100A0C000FCD0FC40FCD0FC495E8070084E8070085
:100A1C0007F13C03184601F02BFA00214FF47F003C
:100A2C0001F03FFA4FF4207307938A2306930423B3
:100A3C0005930123049300230393002302930123C2
:100A4C00019300230093002300220021002001F0D9
:100A5C00EDF8484B07F1BC041D460FCD0FC495E8CB
:100A6C00070003C4227007F1BC03184601F000FA1A
:100A7C0075E000214FF47F4001F013FAA023079397
:100A8C004FF4A373069304230593012304930023CB
:100A9C00039300230293012301930023009300236B
:100AAC0000220021002001F0C1F8334B07F10804AB
:100ABC001D460FCD0FC40FCD0FC40FCD0FC42B6827
:100ACC001A46228002341B0C237007F108031846C7
:100ADC0001F0CEF90021294801F0E3F94FF420731D
:100AEC0007938A230693042305930123049300237D
:100AFC00039300230293012301930023009300230B
:100B0C0000220021002001F091F81D4B1B687B6036
:100B1C001C4B1B681C4A12681C4909681C4800685D
:100B2C001C4C24681C4D2D6807F13C06DFF86CC08A
:100B3C00C7F800C0D7F800C0CDF818C005950494CC
:100B4C0003900291019200937B68154A80213046F4
:100B5C0006F01AFC07F13C03184601F089F900BFB6
:100B6C00DC37BD46F0BD00BF0C000020F4000020B7
:100B7C00447E0008807E00089C7E000890909000C7
:100B8C001000002014000020180000201C00002081
:100B9C002000002024000020280000202C00002031
:100BAC002C7E000880B584B000AF03460A46FB805B
:100BBC0013467B717B79013BFB6025E0FA88FB686F
:100BCC0042FA03F303F00103002B05D0012220218C
:100BDC00114804F0CAFC04E0002220210E4804F065
:100BEC00C4FC012210210C4804F0BFFC052000F0CD
:100BFC005DF800221021084804F0B7FC052000F035
:100C0C0055F8FB68013BFB60FB68002BD6DA00BF94
:100C1C0000BF1037BD4680BD000C014080B582B0CE
:100C2C0000AF0346FB71002208210C4804F09DFC28
:100C3C000A2000F03BF8FB799BB209211846FFF71C
:100C4C00B1FF01220821054804F08FFC0A2000F0B6
:100C5C002DF800BF0837BD4680BD00BF000C014019
:100C6C0080B582B000AF0346FB71002208210E480C
:100C7C0004F07BFC0A2000F019F8FB791BB243F45A
:100C8C0080731BB29BB209211846FFF78BFF012220
:100C9C000821054804F069FC0A2000F007F800BFA1
:100CAC000837BD4680BD00BF000C014080B586B042
:100CBC0000AF0346FB80154B9B687B6105F05AF82F
:100CCC000346134AA2FB03239B0CFA8802FB03F393
:100CDC003B610E4B5B680133FB6008E00B4B9B6880
:100CEC00FA689A4203D27A69FB68D31A7B61074B84
:100CFC009B687A69D31A23F07F433A699A42EDD8FC
:100D0C0000BF00BF1837BD4680BD00BF10E000E03B
:100D1C0083DE1B4380B500AFFF20FFF77FFF7720FA
:100D2C00FFF79EFF0120FFF79BFF0020FFF798FFC6
:100D3C000020FFF795FF1320FFF792FFEF20FFF73E
:100D4C006DFF0820FFF78CFFFF20FFF767FF772070
:100D5C00FFF786FF0120FFF783FF0020FFF780FFDE
:100D6C000020FFF77DFF1020FFF77AFFC020FFF770
:100D7C0055FF7720FFF774FF0020FFF771FF092064
:100D8C00FFF76EFF0820FFF76BFFC220FFF746FF4F
:100D9C000120FFF765FF0220FFF762FFC320FFF77A
:100DAC003DFF0220FFF75CFFCC20FFF737FF102040
:100DBC00FFF756FFB020FFF731FF4020FFF750FF41
:100DCC001420FFF74DFF5920FFF74AFF1020FFF7C3
:100DDC0047FF1220FFF744FF0820FFF741FF0320D5
:100DEC00FFF73EFF0920FFF73BFF0520FFF738FF19
:100DFC001E20FFF735FF0520FFF732FF1420FFF709
:100E0C002FFF1020FFF72CFF6820FFF729FF33205E
:100E1C00FFF726FF1520FFF723FFB120FFF7FEFE9B
:100E2C004020FFF71DFF0820FFF71AFF5320FFF7A4
:100E3C0017FF0920FFF714FF1120FFF711FF0920FE
:100E4C00FFF70EFF0220FFF70BFF0720FFF708FF4D
:100E5C000920FFF705FF1A20FFF702FF0420FFF718
:100E6C00FFFE1220FFF7FCFE1220FFF7F9FE6420B4
:100E7C00FFF7F6FE2920FFF7F3FE2920FFF7F0FE1F
:100E8C00FF20FFF7CBFE7720FFF7EAFE0120FFF7EC
:100E9C00E7FE0020FFF7E4FE0020FFF7E1FE112043
:100EAC00FFF7DEFEB020FFF7B9FE6D20FFF7D8FE8E
:100EBC00B120FFF7B3FE1D20FFF7D2FEB220FFF7E3
:100ECC00ADFE8720FFF7CCFEB320FFF7A7FE8020F6
:100EDC00FFF7C6FEB520FFF7A1FE4920FFF7C0FEC5
:100EEC00B720FFF79BFE8520FFF7BAFEB820FFF76F
:100EFC0095FE2020FFF7B4FEC120FFF78FFE78206F
:100F0C00FFF7AEFEC220FFF789FE7820FFF7A8FEA0
:100F1C00D020FFF783FE8820FFF7A2FEE020FFF72A
:100F2C007DFE0020FFF79CFE0020FFF799FE0220BB
:100F3C00FFF796FEE120FFF771FE0220FFF790FE0F
:100F4C008C20FFF78DFE0020FFF78AFE0020FFF7B4
:100F5C0087FE0320FFF784FE8C20FFF781FE002024
:100F6C00FFF77EFE0020FFF77BFE0020FFF778FEE8
:100F7C003320FFF775FE3320FFF772FEE220FFF7F8
:100F8C004DFE3320FFF76CFE3320FFF769FE332054
:100F9C00FFF766FE3320FFF763FEC920FFF760FE04
:100FAC003C20FFF75DFE0020FFF75AFE0020FFF704
:100FBC0057FECA20FFF754FE3C20FFF751FE0020DD
:100FCC00FFF74EFE0020FFF74BFE0020FFF748FE18
:100FDC00E320FFF723FE0020FFF742FE0020FFF77F
:100FEC003FFE3320FFF73CFE3320FFF739FEE420B1
:100FFC00FFF714FE4420FFF733FE4420FFF730FECA
:10100C00E520FFF70BFE0520FFF72AFECD20FFF7AA
:10101C0027FE8220FFF724FE8220FFF721FE01200D
:10102C00FFF71EFEC920FFF71BFE8220FFF718FEFC
:10103C008220FFF715FE0720FFF712FECF20FFF7E7
:10104C000FFE8220FFF70CFE8220FFF709FE032023
:10105C00FFF706FECB20FFF703FE8220FFF700FE12
:10106C008220FFF7FDFDE620FFF7D8FD0020FFF7FB
:10107C00F7FD0020FFF7F4FD3320FFF7F1FD3320DF
:10108C00FFF7EEFDE720FFF7C9FD4420FFF7E8FD71
:10109C004420FFF7E5FDE820FFF7C0FD0620FFF731
:1010AC00DFFDCE20FFF7DCFD8220FFF7D9FD82208B
:1010BC00FFF7D6FD0220FFF7D3FDCA20FFF7D0FDC6
:1010CC008220FFF7CDFD8220FFF7CAFD0820FFF735
:1010DC00C7FDD020FFF7C4FD8220FFF7C1FD8220A1
:1010EC00FFF7BEFD0420FFF7BBFDCC20FFF7B8FDDA
:1010FC008220FFF7B5FD8220FFF7B2FDEB20FFF752
:10110C008DFD0820FFF7ACFD0120FFF7A9FDE420C1
:10111C00FFF7A6FDE420FFF7A3FD8820FFF7A0FD55
:10112C000020FFF79DFD4020FFF79AFDEC20FFF714
:10113C0075FD0020FFF794FD0020FFF791FD0020C6
:10114C00FFF78EFDED20FFF769FDFF20FFF788FD0F
:10115C00F020FFF785FD0720FFF782FD6520FFF7E4
:10116C007FFD4F20FFF77CFDFC20FFF779FDC220AF
:10117C00FFF776FD2F20FFF773FDF220FFF770FDD0
:10118C002C20FFF76DFDCF20FFF76AFDF420FFF751
:10119C0067FD5620FFF764FD7020FFF761FD0F20FF
:1011AC00FFF75EFDFF20FFF75BFDEF20FFF736FD3D
:1011BC001020FFF755FD0D20FFF752FD0420FFF71F
:1011CC004FFD0820FFF74CFD3F20FFF749FD1F2086
:1011DC00FFF746FDFF20FFF721FD7720FFF740FDCD
:1011EC000120FFF73DFD0020FFF73AFD0020FFF73F
:1011FC0037FD0020FFF734FD1120FFF70FFD78209D
:10120C0003F048FA3520FFF709FD0020FFF728FD11
:10121C003A20FFF703FD6620FFF722FD2920FFF798
:10122C00FDFC00BF80BD80B582B000AFFF20FFF792
:10123C00F5FC7720FFF714FD0120FFF711FD0020CE
:10124C00FFF70EFD0020FFF70BFD1320FFF708FD45
:10125C00EF20FFF7E3FC0820FFF702FDFF20FFF76C
:10126C00DDFC7720FFF7FCFC0120FFF7F9FC0020E8
:10127C00FFF7F6FC0020FFF7F3FC1020FFF7F0FC63
:10128C00C020FFF7CBFC7720FFF7EAFC0020FFF72C
:10129C00E7FCC120FFF7C2FC0A20FFF7E1FC0C20A1
:1012AC00FFF7DEFCC220FFF7B9FC3720FFF7D8FCB4
:1012BC000820FFF7D5FCC320FFF7B0FC8120FFF717
:1012CC00CFFC3820FFF7CCFC2220FFF7C9FCCC2048
:1012DC00FFF7A4FC1020FFF7C3FCB020FFF79EFC27
:1012EC004020FFF7BDFC1420FFF7BAFC5920FFF794
:1012FC00B7FC1020FFF7B4FC1220FFF7B1FC08205C
:10130C00FFF7AEFC0320FFF7ABFC0920FFF7A8FCAE
:10131C000520FFF7A5FC1E20FFF7A2FC0520FFF718
:10132C009FFC1420FFF79CFC1020FFF799FC682011
:10133C00FFF796FC3320FFF793FC1520FFF790FC8A
:10134C00B120FFF76BFC4020FFF78AFC0820FFF769
:10135C0087FC5320FFF784FC0920FFF781FC112048
:10136C00FFF77EFC0920FFF77BFC0220FFF778FCDF
:10137C000720FFF775FC0920FFF772FC1A20FFF716
:10138C006FFC0420FFF76CFC1220FFF769FC1220A5
:10139C00FFF766FC6420FFF763FC2920FFF760FC75
:1013AC002920FFF75DFCFF20FFF738FC7720FFF7C3
:1013BC0057FC0120FFF754FC0020FFF751FC0020E4
:1013CC00FFF74EFC1120FFF74BFCB020FFF726FC7B
:1013DC006D20FFF745FCB120FFF720FC1D20FFF727
:1013EC003FFCB220FFF71AFC8720FFF739FCB32033
:1013FC00FFF714FC0020FFF733FCB520FFF70EFCC1
:10140C004920FFF72DFCB720FFF708FC8520FFF7DC
:10141C0027FCB820FFF702FC2020FFF721FCC1209D
:10142C00FFF7FCFB7820FFF71BFCC220FFF7F6FB55
:10143C007820FFF715FCD020FFF7F0FB8820FFF792
:10144C000FFCE020FFF7EAFB0020FFF709FC00206F
:10145C00FFF706FC0220FFF703FC0023FB710223BD
:10146C00BB71FB79002B01D0102200E0002297F910
:10147C00063003F003035BB213435BB27B71E120D4
:10148C00FFF7CCFB7B791846FFF7EAFB8C20FFF7C4
:10149C00E7FB0020FFF7E4FB0020FFF7E1FB032054
:1014AC00FFF7DEFB8C20FFF7DBFB0020FFF7D8FB00
:1014BC000020FFF7D5FB0020FFF7D2FB3320FFF70E
:1014CC00CFFB3320FFF7CCFB00233B710223FB70D7
:1014DC003B79002B01D0102200E0002297F9033059
:1014EC0003F003035BB213435BB2BB70E220FFF764
:1014FC0095FBBB781846FFF7B3FB3320FFF7B0FB27
:10150C003320FFF7ADFB3320FFF7AAFB3320FFF7A7
:10151C00A7FBC920FFF7A4FB3C20FFF7A1FB002091
:10152C00FFF79EFB0020FFF79BFBCA20FFF798FB01
:10153C003C20FFF795FB0020FFF792FB0020FFF704
:10154C008FFB0020FFF78CFBE320FFF767FB0020ED
:10155C00FFF786FB0020FFF783FB3320FFF780FBB0
:10156C003320FFF77DFBE420FFF758FB4420FFF707
:10157C0077FB4420FFF774FBE520FFF74FFB0520BA
:10158C00FFF76EFBCD20FFF76BFB8220FFF768FBAC
:10159C008220FFF765FB0120FFF762FBC920FFF7F4
:1015AC005FFB8220FFF75CFB8220FFF759FB0720D3
:1015BC00FFF756FBCF20FFF753FB8220FFF750FBC2
:1015CC008220FFF74DFB0320FFF74AFBCB20FFF7F0
:1015DC0047FB8220FFF744FB8220FFF741FBE6200C
:1015EC00FFF71CFB0020FFF73BFB0020FFF738FB4D
:1015FC003320FFF735FB3320FFF732FBE720FFF7F3
:10160C000DFB4420FFF72CFB4420FFF729FBE820BF
:10161C00FFF704FB0620FFF723FBCE20FFF720FB90
:10162C008220FFF71DFB8220FFF71AFB0220FFF739
:10163C0017FBCA20FFF714FB8220FFF711FB822057
:10164C00FFF70EFB0820FFF70BFBD020FFF708FB82
:10165C008220FFF705FB8220FFF702FB0420FFF737
:10166C00FFFACC20FFF7FCFA8220FFF7F9FA822070
:10167C00FFF7F6FAEB20FFF7D1FA0820FFF7F0FAA4
:10168C000120FFF7EDFAE420FFF7EAFAE420FFF778
:10169C00E7FA8820FFF7E4FA0020FFF7E1FA402090
:1016AC00FFF7DEFAEC20FFF7B9FA0020FFF7D8FAC3
:1016BC000020FFF7D5FA0020FFF7D2FAED20FFF754
:1016CC00ADFAFF20FFF7CCFAF020FFF7C9FA07209C
:1016DC00FFF7C6FA6520FFF7C3FA4F20FFF7C0FAF1
:1016EC00FC20FFF7BDFAC220FFF7BAFA2F20FFF754
:1016FC00B7FAF220FFF7B4FA2C20FFF7B1FACF209B
:10170C00FFF7AEFAF420FFF7ABFA5620FFF7A8FA72
:10171C007020FFF7A5FA0F20FFF7A2FAFF20FFF7C2
:10172C009FFAEF20FFF77AFA1020FFF799FA0D20B5
:10173C00FFF796FA0420FFF793FA0820FFF790FAC8
:10174C003F20FFF78DFA1F20FFF78AFAFF20FFF7E3
:10175C0065FA7720FFF784FA0120FFF781FA002061
:10176C00FFF77EFA0020FFF77BFA0020FFF778FAEC
:10177C001120FFF753FA782002F08CFF3520FFF789
:10178C004DFA0020FFF76CFA3A20FFF747FA552084
:10179C00FFF766FA2920FFF741FA00BF0837BD466C
:1017AC0080BD000080B500AF00224FF48061084876
:1017BC0003F0DBFE642002F06DFF01224FF4806128
:1017CC00034803F0D2FE642002F064FF00BF80BD2A
:1017DC00000C014080B584B000AF0346FB710023C0
:1017EC00FB73002210210D4803F0BFFE07F10F011F
:1017FC004FF0FF3301220A4804F068FBF91D4FF04B
:10180C00FF330122064804F061FB0122102103483A
:10181C0003F0ABFE00BF1037BD4680BD0008014091
:10182C00E005002080B584B000AF0346FB71802337
:10183C00FB73002210210D4803F097FE07F10F01F6
:10184C004FF0FF3301220A4804F040FBF91D4FF022
:10185C00FF330122064804F039FB01221021034812
:10186C0003F083FE00BF1037BD4680BD0008014069
:10187C00E005002080B582B000AFC023FB710023CF
:10188C00BB71002210210D4803F06FFEF91D4FF0C3
:10189C00FF3301220A4804F019FBB91D4FF0FF3346
:1018AC000122074804F04EFC01221021034803F0EA
:1018BC005CFEBB7918460837BD4680BD0008014068
:1018CC00E005002080B582B000AF03460A46FB71EC
:1018DC001346BB71FB791846FFF77CFFBB791846A2
:1018EC00FFF7A0FF00BF0837BD4680BD80B500AF35
:1018FC0000F0AEFE0A2002F0CDFE00F05BFB64208F
:10190C0002F0C8FE00F099FC052002F0C3FE00F0C6
:10191C00F7FC642002F0BEFE00F01AFE052002F077
:10192C00B9FE4FF470714FF4C87000F02DFD052016
:10193C0002F0B0FE394B1B689BB2184600F06BFDF1
:10194C00052002F0A7FE364B1B689BB2184600F030
:10195C0085FD052002F09EFE324B1B689BB218469B
:10196C0000F098FD052002F095FE2F4B1B689BB2F2
:10197C00184600F0ABFD052002F08CFE2B4B1B68CB
:10198C009BB2184600F0BCFD052002F083FE284BEC
:10199C001B689BB2184600F0C7FD052002F07AFECA
:1019AC0000F0C7FE052002F075FE00F0D9FB052003
:1019BC0002F070FE00F07AFE052002F06BFE00F0E3
:1019CC0085FE052002F066FE00F0C0FA052002F04C
:1019DC0061FE00F09EFE052002F05CFE00F0EBFEC6
:1019EC00052002F057FE00F012FF052002F052FE17
:1019FC0000F0B3FE052002F04DFE00F0BEFE052007
:101A0C0002F048FE00F036FE052002F043FE00F026
:101A1C0085FA00F0C1F900BF80BD00BF1C0000209A
:101A2C0020000020240000201000002014000020C2
:101A3C001800002090B583B000AF0446084611464C
:101A4C001A462346FB800346BB800B467B8013461D
:101A5C003B806820FFF7BEFEFB88DBB21846FFF721
:101A6C00E1FE6920FFF7B6FEFB881B0A9BB2DBB2D6
:101A7C0003F01F03DBB21846FFF7D4FE6A20FFF712
:101A8C00A9FEBB88DBB21846FFF7CCFE6B20FFF734
:101A9C00A1FEBB881B0A9BB2DBB203F01F03DBB2B7
:101AAC001846FFF7BFFE6C20FFF794FE7B88DBB275
:101ABC001846FFF7B7FE6D20FFF78CFE7B881B0ADC
:101ACC009BB2DBB203F01F03DBB21846FFF7AAFE92
:101ADC006E20FFF77FFE3B88DBB21846FFF7A2FEB5
:101AEC006F20FFF777FE3B881B0A9BB2DBB203F03B
:101AFC001F03DBB21846FFF795FED220FFF76AFEF4
:101B0C003B8BDBB21846FFF78DFED320FFF762FE4E
:101B1C00BB8BDBB21846FFF785FED420FFF75AFECD
:101B2C003B8CDBB21846FFF77DFE6720FFF752FEB9
:101B3C008020FFF777FE00BF0C37BD4690BD00003C
:101B4C00B0B592B000AF1B4B3C1D1D460FCD0FC462
:101B5C000FCD0FC40FCD0FC495E80F0084E80F0014
:101B6C000320FFF737FE002387F8463097F84630FE
:101B7C001846FFF757FE002387F8473010E0042083
:101B8C00FFF728FE97F8473048333B4413F8443CA2
:101B9C001846FFF747FE97F84730013387F8473070
:101BAC0097F847303F2BEAD900BF00BF4837BD46F6
:101BBC00B0BD00BFD07E0008B0B58EB000AF1A4BE0
:101BCC003C1D1D460FCD0FC40FCD0FC495E80F0063
:101BDC0084E80F000320FFF7FDFD002387F8363063
:101BEC0097F836301846FFF71DFE002387F837307C
:101BFC0010E00420FFF7EEFD97F8373038333B4404
:101C0C0013F8343C1846FFF70DFE97F837300133C4
:101C1C0087F8373097F837302F2BEAD900BF00BF41
:101C2C003837BD46B0BD00BF107F000890B585B0F9
:101C3C0000AF0446084611461A462346FB7103467C
:101C4C00BB710B467B7113463B710023FB73002366
:101C5C00BB7397F907309B015AB297F90F301343B6
:101C6C005BB2FB7397F906301B015BB203F03003D8
:101C7C005AB297F90F3013435BB2FB7397F90530E7
:101C8C0003F003035AB297F90F3013435BB2FB73A3
:101C9C00CC20FFF79FFDFB7B1846FFF7C3FD97F9A0
:101CAC000430DB015AB297F90E3013435BB2BB73AD
:101CBC0097F920309B015AB297F90E3013435BB25F
:101CCC00BB7397F924301B015AB297F90E301343AA
:101CDC005BB2BB7397F928309B005BB203F00C032B
:101CEC005AB297F90E3013435BB2BB7397F92C3091
:101CFC0003F003035AB297F90E3013435BB2BB7374
:101D0C00CD20FFF767FDBB7B1846FFF78BFDD0207E
:101D1C00FFF760FD97F8303003F01F03DBB2184675
:101D2C00FFF780FDD120FFF755FD97F8343003F015
:101D3C003F03DBB21846FFF775FD6320FFF74AFD42
:101D4C003B8FDBB21846FFF76DFD6420FFF742FDB9
:101D5C003B8F1B0A9BB2DBB203F01F03DBB21846AE
:101D6C00FFF760FD6520FFF735FDBB8FDBB2184632
:101D7C00FFF758FD6620FFF72DFDBB8F1B0A9BB2AA
:101D8C00DBB203F01F03DBB21846FFF74BFD00BFBD
:101D9C001437BD4690BD000080B58AB008AF08234B
:101DAC007B8010233B800021002000F07AF8002378
:101DBC000793002306930023059300230493012328
:101DCC000393012302930123019300230093002327
:101DDC00002200210020FFF729FF0023FB803BE0BD
:101DEC000023BB8030E06320FFF7F4FCBB88DBB240
:101DFC001846FFF717FD6420FFF7ECFCBB881B0AA5
:101E0C009BB2DBB203F01F03DBB21846FFF70AFDEF
:101E1C006520FFF7DFFCFB88DBB21846FFF702FDFD
:101E2C006620FFF7D7FCFB881B0A9BB2DBB203F0E2
:101E3C001F03DBB21846FFF7F5FC0C4800F018F84E
:101E4C00BA883B881344BB80BB88B3F5C87FCAD320
:101E5C00FA887B881344FB80FB88B3F5707FBFD373
:101E6C0000BF00BF0837BD4680BD00BF407F0008E3
:101E7C0080B582B000AF78600AE00420FFF7AAFCBE
:101E8C007B681B781846FFF7CDFC7B6801337B60C1
:101E9C007B681B78002BF0D100BF00BF0837BD4614
:101EAC0080BD80B582B000AF78603960D220FFF77A
:101EBC0091FC7B681B0CDBB21846FFF7B3FCD320FC
:101ECC00FFF788FC7B681B0ADBB21846FFF7AAFCFD
:101EDC00D420FFF77FFC7B68DBB21846FFF7A2FC2F
:101EEC00D520FFF777FC3B681B0CDBB21846FFF7DD
:101EFC0099FCD620FFF76EFC3B681B0ADBB2184638
:101F0C00FFF790FCD720FFF765FC3B68DBB2184667
:101F1C00FFF788FC00BF0837BD4680BD80B582B096
:101F2C0000AF0023FB71FB7943F00403FB71FB79D9
:101F3C0023F00303FB710320FFF74CFCFB791846DD
:101F4C00FFF770FC00BF0837BD4680BD80B500AF01
:101F5C005620FFF73FFC0020FFF764FC5720FFF7EB
:101F6C0039FC0020FFF75EFC5820FFF733FC002003
:101F7C00FFF758FC5920FFF72DFC0020FFF752FC0F
:101F8C005A20FFF727FC8F20FFF74CFC5B20FFF754
:101F9C0021FC0120FFF746FC5C20FFF71BFCBF2057
:101FAC00FFF740FC5D20FFF715FC0320FFF73AFC20
:101FBC0000BF80BD80B588B000AF614B1A68614B23
:101FCC001B681A44604B1B68134403F5C8735F4AC3
:101FDC0011685F4A126811445E4A12680A4402F59D
:101FEC00707202FB03F35C4A126802FB03F37B6121
:101FFC007B6903F5F42303F59073584AA2FB032382
:10200C009B0C7B617B69FB837B699BB25B00BB8315
:10201C007B699BB25B007B83FB8B412B01D94123FA
:10202C00FB83BB8B642B01D96423BB837B8B642B1D
:10203C0001D964237B8302237B8202233B8202230C
:10204C00FB810523BB8105237B8105233B81FB8B16
:10205C00FB807B8BBB80BB8B7B800520FFF7BAFBA7
:10206C007B8A5BB29B015AB2BB895BB25B005BB2F1
:10207C0013435AB2FB881B0A9BB25BB203F00103F9
:10208C005BB213435BB2DBB21846FFF7CBFB062007
:10209C00FFF7A0FBFB88DBB21846FFF7C3FB07205A
:1020AC00FFF798FBFB895BB29B015AB23B895BB291
:1020BC005B005BB213435AB27B881B0A9BB25BB2C8
:1020CC0003F001035BB213435BB2DBB21846FFF7BC
:1020DC00A9FB0820FFF77EFB7B88DBB21846FFF7D5
:1020EC00A1FB0920FFF776FB3B8A5BB29B015AB23E
:1020FC007B895BB25B005BB213435AB2BB881B0A91
:10210C009BB25BB203F001035BB213435BB2DBB275
:10211C001846FFF787FB0A20FFF75CFBBB88DBB296
:10212C001846FFF77FFB0020FFF754FB8020FFF7DA
:10213C0079FB0A2002F0AEFA00BF2037BD4680BD05
:10214C001C00002020000020240000201000002093
:10215C0014000020180000202800002083DE1B4300
:10216C0080B582B000AF0023FB71FB7943F0040310
:10217C00FB711020FFF72EFBFB791846FFF752FB83
:10218C002A20FFF727FB0020FFF74CFB2B20FFF743
:10219C0021FB0020FFF746FB2C20FFF71BFB002048
:1021AC00FFF740FB2D20FFF715FB0020FFF73AFB54
:1021BC002E20FFF70FFB6420FFF734FB2F20FFF7D7
:1021CC0009FB0020FFF72EFB3020FFF703FB6420F8
:1021DC00FFF728FB3120FFF7FDFA0020FFF722FB69
:1021EC003220FFF7F7FA0020FFF71CFB3320FFF734
:1021FC00F1FA0020FFF716FB3420FFF7EBFA002072
:10220C00FFF710FB3520FFF7E5FA0020FFF70AFB7C
:10221C000023BB71BB7943F00403BB71BB7943F062
:10222C000103BB711120FFF7D5FABB791846FFF7F4
:10223C00F9FA00BF0837BD4680BD80B582B000AF4B
:10224C000023FB71E420FFF7C5FAFB7943F004038C
:10225C00FB71FB791846FFF7E5FAE020FFF7BAFAB5
:10226C002920FFF7DFFAE120FFF7B4FA0320FFF78C
:10227C00D9FA9C23BB80BB88023BBB80E220FFF7D2
:10228C00A9FABB88DBB21846FFF7CCFAE320FFF7BC
:10229C00A1FABB881B0A9BB2DBB21846FFF7C2FA45
:1022AC00E420FFF797FA0120FFF7BCFAE420FFF7D0
:1022BC0091FAFB7923F00403FB71FB791846FFF7C5
:1022CC00B1FA012002F0E6F900F004F800BF08377B
:1022DC00BD4680BD80B582B000AFE420FFF77AFA2E
:1022EC00FFF7C8FA0346FB71FB7903F00103002BDF
:1022FC00F3D00A2002F0CEF900BF0837BD4680BDEE
:10230C0080B582B000AF0023FB71FB7943F008036A
:10231C00FB71FB7943F04003FB710120FFF75AFA84
:10232C00FB791846FFF77EFA0023FB710220FFF7BA
:10233C0051FAFB791846FFF775FA0023FB7103205D
:10234C00FFF748FAFB791846FFF76CFA0023FB718C
:10235C001220FFF73FFAFB791846FFF763FA0023C8
:10236C00FB71FB7943F00203FB71FB7943F0010332
:10237C00FB711320FFF72EFAFB791846FFF752FA80
:10238C0000BF0837BD4680BD80B584B000AF0346A2
:10239C000A46FB801346BB80FB88DB089BB2013BE3
:1023AC00FB810023BB811420FFF714FAFB89DBB2FD
:1023BC001846FFF737FA1520FFF70CFABB89DBB28A
:1023CC0003F00F03DBB21846FFF72CFABB88B3F50A
:1023DC00806F02D94FF48063BB80BB88002B01D186
:1023EC000123BB80BB88013B7B811A20FFF7F2F9EC
:1023FC007B89DBB21846FFF715FA1B20FFF7EAF9C9
:10240C007B891B0A9BB2DBB21846FFF70BFA00BFA5
:10241C001037BD4680BD80B584B000AF0346FB804D
:10242C00FB88DB089BB2013BFB810023BB811620A0
:10243C00FFF7D0F9FB89DBB21846FFF7F3F9172049
:10244C00FFF7C8F9BB89DBB203F00F03DBB2184608
:10245C00FFF7E8F900BF1037BD4680BD80B584B0EA
:10246C0000AF0346FB80FB88072B02D80023FB81BF
:10247C0004E0FB88DB089BB2013BFB811820FFF7D3
:10248C00A9F9FB89DBB21846FFF7CCF900BF10376E
:10249C00BD4680BD80B584B000AF0346FB80FB8891
:1024AC00072B02D80023FB8104E0FB88DB089BB2DE
:1024BC00013BFB811920FFF78DF9FB89DBB2184634
:1024CC00FFF7B0F900BF1037BD4680BD80B584B0B2
:1024DC0000AF0346FB80FB88DBB2013BFB731C2087
:1024EC00FFF778F9FB7B1846FFF79CF91D20FFF7E7
:1024FC0071F90020FFF796F900BF1037BD4680BD7B
:10250C0080B584B000AF0346FB80FB88DBB2013B97
:10251C00FB731E20FFF75EF9FB7B1846FFF782F971
:10252C0000BF1037BD4680BD80B584B000AF0346F8
:10253C00FB80FB88DBB2013BFB731F20FFF74AF9E2
:10254C00FB7B1846FFF76EF900BF1037BD4680BD08
:10255C0080B582B000AF0023FB71FB7943F04003E0
:10256C00FB71FB7943F00803FB711220FFF732F982
:10257C00FB791846FFF756F900BF0837BD4680BDFA
:10258C0080B582B000AF0023FB71FB7923F04003D0
:10259C00FB711220FFF71EF9FB791846FFF742F981
:1025AC0000BF0837BD4680BD80B584B000AF034680
:1025BC00FB71FB79642B01D96423FB718420FFF739
:1025CC0009F91020FFF72EF98520FFF703F9882071
:1025DC00FFF728F9FA7913461B029B1A1B4A82FB58
:1025EC0003125211DB17D31AFB81FF23BB818C2002
:1025FC00FFF7F0F8FB89DBB21846FFF713F98D20D3
:10260C00FFF7E8F8FB891B0A9BB2DBB21846FFF711
:10261C0009F98E20FFF7DEF8BB89DBB21846FFF70D
:10262C0001F98F20FFF7D6F8BB891B0A9BB2DBB2EE
:10263C001846FFF7F7F88620FFF7CCF83020FFF7A5
:10264C00F1F800BF1037BD4680BD00BF1F85EB51B0
:10265C0080B582B000AF0023FB71FB7943F001031E
:10266C00FB71FB7919460020FFF72CF900BF0837E6
:10267C00BD4680BD80B500AF2020FFF7ABF8002031
:10268C00FFF7D0F82120FFF7A5F80020FFF7CAF8D4
:10269C002220FFF79FF80020FFF7C4F82320FFF754
:1026AC0099F80020FFF7BEF800BF80BD80B500AFE1
:1026BC002420FFF78FF89020FFF7B4F82520FFF7C0
:1026CC0089F80120FFF7AEF800BF80BD80B582B05D
:1026DC0000AF0023FB80FB88DBB223F003037B718C
:1026EC00FB881B0A9BB2DBB203F01F033B71262055
:1026FC00FFF770F87B791846FFF794F82720FFF75F
:10270C0069F83B791846FFF78DF800BF0837BD46CE
:10271C0080BD80B500AF2820FFF75CF80020FFF7E4
:10272C0081F82920FFF756F80020FFF77BF800BF4F
:10273C0080BD80B582B000AF0023FB71FB7943F004
:10274C000103FB715E20FFF745F8FB791846FFF794
:10275C0069F800BF0837BD4680BD80B500AF5F206B
:10276C00FFF738F80020FFF75DF86020FFF732F82C
:10277C000020FFF757F800BF80BD80B582B000AFD6
:10278C000023FB806120FFF725F8FB88DBB218469D
:10279C00FFF748F86220FFF71DF8FB881B0A9BB275
:1027AC00DBB203F01F03DBB21846FFF73BF800BFA8
:1027BC000837BD4680BD80B582B000AF00237B607A
:1027CC005020FFF707F87B68DBB21846FFF72AF8B2
:1027DC005120FEF7FFFF7B681B0ADBB21846FFF7A0
:1027EC0021F85220FEF7F6FF7B681B0CDBB2184673
:1027FC00FFF718F85320FEF7EDFF7B681B0EDBB2DA
:10280C001846FFF70FF800BF0837BD4680BD80B5EE
:10281C0000AF5420FEF7DEFF9020FFF703F85520A1
:10282C00FEF7D8FF0120FEF7FDFF00BF80BD0000C2
:10283C0080B483B000AF0346FB7197F90730002BCF
:10284C000BDBFB7903F01F02064997F907305B0994
:10285C00012000FA02F241F8232000BF0C37BD46DC
:10286C0080BC704700E100E080B500AF124BDB6923
:10287C00114A43F00103D3614FF0804341F61F42EC
:10288C009A624FF0804341F28732DA624FF0804314
:10289C00DB684FF0804243F00103D3604FF080437C
:1028AC001B684FF0804243F0010313601C20FFF7BC
:1028BC00BFFF00BF80BD00BF0010024080B400AF5E
:1028CC004FF080431B6903F00103002B0AD04FF03B
:1028DC0080431B694FF0804223F001031361034BCB
:1028EC0001221A7000BFBD4680BC7047F800002062
:1028FC0080B483B000AF0346FB80FA8813469B007C
:10290C0013445B005A1E4FF08043DA624FF0804351
:10291C0001225A6100BF0C37BD4680BC70470000D5
:10292C0080B582B000AF104B5B690F4A43F00103D6
:10293C0053610D4B5B6903F001037B607B680022E4
:10294C0000210D2001F0A1FF0D2001F0BAFF0022A3
:10295C0000210E2001F099FF0E2001F0B2FF00BF04
:10296C000837BD4680BD00BF0010024080B588B05E
:10297C0000AF07F1100300221A605A609A60DA6007
:10298C00684B9B69674A43F010039361654B9B69E5
:10299C0003F01003FB60FB68624B9B69614A43F0D8
:1029AC00200393615F4B9B6903F02003BB60BB6802
:1029BC005C4B9B695B4A43F004039361594B9B69E5
:1029CC0003F004037B607B68564B9B69554A43F0CC
:1029DC0008039361534B9B6903F008033B603B680E
:1029EC0000224FF40051504802F0BFFD4FF4005349
:1029FC003B6101237B610023BB610223FB6107F177
:102A0C0010031946484802F015FC4FF480633B61F3
:102A1C0001237B610023BB610223FB6107F11003DF
:102A2C001946424802F006FC4FF400633B61404BF0
:102A3C007B610023BB6107F1100319463B4802F090
:102A4C00F9FB08233B6101237B610123BB61032359
:102A5C00FB6107F110031946344802F0EBFB10231D
:102A6C003B6101237B610023BB610323FB6107F105
:102A7C00100319462D4802F0DDFB20233B61012396
:102A8C007B610023BB610323FB6107F11003194633
:102A9C00264802F0CFFB01233B6100237B6101231D
:102AAC00BB610223FB6107F1100319461F4802F0BA
:102ABC00C1FB02233B6100237B610123BB61022329
:102ACC00FB6107F110031946184802F0B3FB4FF4F1
:102ADC0000633B6100237B610023BB610223FB612C
:102AEC0007F110031946114802F0A4FB4FF4805370
:102AFC003B6100237B610023BB610223FB6107F177
:102B0C0010031946094802F095FB002200212820E9
:102B1C0001F0BBFE282001F0D4FE00BF2037BD46DB
:102B2C0080BD00BF0010024000100140000C0140AD
:102B3C000000111080B483B000AF0346FB7197F90D
:102B4C000730002B0BDBFB7903F01F02064997F9CA
:102B5C0007305B09012000FA02F241F8232000BF84
:102B6C000C37BD4680BC704700E100E080B483B0F8
:102B7C0000AF0346FB7197F90730002B12DBFB7992
:102B8C0003F01F020A4997F907305B09012000FA8C
:102B9C0002F2203341F82320BFF34F8F00BFBFF365
:102BAC006F8F00BF00BF0C37BD4680BC704700BFA5
:102BBC0000E100E080B483B000AF0346FB7197F9ED
:102BCC0007305B005BB223F055035AB2FB795B1004
:102BDC005BB203F055035BB213435BB2FB7197F925
:102BEC0007309B005BB223F033035AB2FB799B1086
:102BFC005BB203F033035BB213435BB2FB71FB7943
:102C0C001B09DBB25AB297F907301B015BB21343B5
:102C1C005BB2DBB218460C37BD4680BC7047000077
:102C2C0080B584B000AF78600023FB6014E0FB68D3
:102C3C00DB000D4A134407221946786804F0DAFBCE
:102C4C000346002B05D1084AFB68DB001344DB79F3
:102C5C0006E0FB680133FB60FB68732BE7D93F236D
:102C6C0018461037BD4680BDA081000880B584B0E1
:102C7C0000AF0023FB601FE1FA6813469B0013446E
:102C8C00934AD35CFB72FA6813469B0013440133DE
:102C9C008F4AD35CBB72FA6813469B001344023311
:102CAC008B4AD35C7B72FA6813469B001344033344
:102CBC00874AD35C3B72FA6813469B001344043377
:102CCC00834AD35CFB7197F90A301B015AB27B7AA9
:102CDC001B115BB203F008035BB213435BB2DBB2B4
:102CEC001846FFF767FF034618467A4AFB681344F9
:102CFC001B78194600F01F03D8B2774A0B46DB004D
:102D0C005B1A134402461A7097F90B30DB015AB266
:102D1C00BB7A5B105BB203F078035BB213435BB21C
:102D2C00DBB21846FFF746FF03461846694AFB68B4
:102D3C0013441B78194600F01F03D8B2664A0B46A1
:102D4C00DB005B1A1344013302461A70FB7A9B00BA
:102D5C00DBB223F00703DBB21846FFF72BFF034669
:102D6C0018465C4AFB6813441B78194600F01F0395
:102D7C00D8B2594A0B46DB005B1A134402330246A5
:102D8C001A70FB7ADB105BB203F018035AB297F996
:102D9C0007305B015BB213435BB2DBB21846FFF743
:102DAC0009FF034618464B4AFB6813441B78194627
:102DBC0000F01F03D8B2484A0B46DB005B1A1344E1
:102DCC00033302461A70FB7923F00703DBB2184673
:102DDC00FFF7F0FE034618463E4AFB6813441B7887
:102DEC00194600F01F03D8B23B4A0B46DB005B1AB6
:102DFC001344043302461A703B7ADB00DBB21846EC
:102E0C00FFF7D8FE03461846324AFB6813441B787A
:102E1C00194600F01F03D8B22F4A0B46DB005B1A91
:102E2C001344053302461A7097F909309B015AB2C4
:102E3C003B7A9B105BB203F038035BB213435BB27B
:102E4C00DBB21846FFF7B6FE03461846214AFB686C
:102E5C0013441B78194600F01F03D8B21E4A0B46C8
:102E6C00DB005B1A1344063302461A707B7A03F0BC
:102E7C004003002B14BF01230023D9B2154AFB6871
:102E8C0013441B781A46154B9954FB68242B10DC01
:102E9C00104AFB6813441B781A46104B9B5C002BA2
:102EAC0014BF01230023D9B20D4AFB6813440A4610
:102EBC001A70FB680133FB60FB682E2B7FF7DCAECE
:102ECC00084B00229A7400BF1037BD4680BD00BF6E
:102EDC000003002070810008EC030020380500205E
:102EEC00D8020020B005002080B400AF274B1A7A1E
:102EFC00274B5A70254BDA79254B9A70234B9A79CC
:102F0C00234BDA70214B5A79214B1A711F4B1A79CA
:102F1C001F4B5A711D4BDA781D4B9A711B4B9A78CB
:102F2C001B4BDA71194B5A78194B1A72174B1A78CA
:102F3C00174B5A72154B93F82320154B9A72134B5F
:102F4C0093F82220124BDA72104B93F82120104B7D
:102F5C001A730E4B93F820200D4B5A730B4BDA7FE0
:102F6C000B4B9A73094B9A7F094BDA73074B5A7FB9
:102F7C00074B1A74054B1A7F054B5A74034BDA7EB8
:102F8C00034B9A7400BFBD4680BC7047D80200202A
:102F9C00C4020020F0B591B008AF80220021974800
:102FAC0004F038FA80220021954804F033FA80228C
:102FBC000021944804F02EFAFFF796FF0023FB61E2
:102FCC008BE0FA691346DB009B1A8F4A1344FB60B3
:102FDC00F868FFF725FE0346FB72FB69002B03D153
:102FEC008A4AFB7A537075E0FB69012B03D1874A3F
:102FFC00FB7A93706EE0FB69022B03D1834AFB7A58
:10300C00D37067E0FB69032B03D1804AFB7A137101
:10301C0060E0FB69042B03D17C4AFB7A537159E0C5
:10302C00FB69052B03D1794AFB7A937152E0FB695A
:10303C00062B03D1754AFB7AD3714BE0FB69072B46
:10304C0003D1724AFB7A137244E0FB69082B03D15B
:10305C006E4AFB7A53723DE0FB69092B03D16B4A34
:10306C00FB7A937236E0FB690A2B03D1674AFB7A31
:10307C00D3722FE0FB690B2B03D1644AFB7A1373D9
:10308C0028E0FB690C2B03D1604AFB7A537321E0D7
:10309C00FB690D2B03D15D4AFB7A93731AE0FB6934
:1030AC000E2B03D1594AFB7AD37313E0FB690F2B18
:1030BC0003D1564AFB7A13740CE0FB69102B03D135
:1030CC00524AFB7A537405E0FB69112B02D14F4A2B
:1030DC00FB7A9374FB690133FB61FB69112B7FF75E
:1030EC0070AF4B4B00229A741223BB612AE1BA6970
:1030FC001346DB009B1A444A13447B617869FFF743
:10310C008FFD0346FB74BB69122B03D13F4AFB7C3A
:10311C00D374DEE0BB69132B03D13C4AFB7C1375E3
:10312C00D7E0BB69142B03D1384AFB7C5375D0E034
:10313C00BB69152B03D1354AFB7C9375C9E0BB6980
:10314C00162B03D1314AFB7CD375C2E0BB69172B1C
:10315C0003D12E4AFB7C1376BBE0BB69182B03D141
:10316C002A4AFB7C5376B4E0BB69192B03D1274A5E
:10317C00FB7C9376ADE0BB691A2B03D1234AFB7C15
:10318C00D376A6E0BB691B2B03D1204AFB7C1377BB
:10319C009FE0BB691C2B03D11C4AFB7C537798E046
:1031AC00BB691D2B03D1194AFB7C937791E0BB695A
:1031BC001E2B03D1154AFB7CD3778AE0BB691F2BEE
:1031CC0004D1124AFB7C82F8203082E0BB69202BB0
:1031DC0004D10E4AFB7C82F821307AE0BB69212BAA
:1031EC0004D10A4AFB7C82F8223072E0BB69222BA4
:1031FC0010D1064AFB7C82F823306AE014010020CF
:10320C009401002014020020EC0300209402002002
:10321C00FC000020BB69232B04D1504AFB7C82F8B4
:10322C00243056E0BB69242B04D14C4AFB7C82F839
:10323C0025304EE0BB69252B04D1484AFB7C82F833
:10324C00263046E0BB69262B04D1444AFB7C82F82D
:10325C0027303EE0BB69272B04D1404AFB7C82F827
:10326C00283036E0BB69282B04D13C4AFB7C82F821
:10327C0029302EE0BB69292B04D1384AFB7C82F81B
:10328C002A3026E0BB692A2B04D1344AFB7C82F815
:10329C002B301EE0BB692B2B04D1304AFB7C82F80F
:1032AC002C3016E0BB692C2B04D12C4AFB7C82F809
:1032BC002D300EE0BB692D2B04D1284AFB7C82F803
:1032CC002E3006E0BB692E2B03D1244AFB7C82F8FE
:1032DC002F302348FCF71EFF0346214A9C18204838
:1032EC00FCF718FF0346C3F180017B691B781A4673
:1032FC007B6901331B7818467B6902331B781D46AA
:10330C007B6903331B781E467B6904331B787B6017
:10331C007B6905331B783B607B6906331B7806930E
:10332C00D7F800C0CDF814C07B68049303960295BF
:10333C0001900092BB690B4A204604F025F8BB694A
:10334C000133BB61BB692E2B7FF7D1AE064B00223C
:10335C005A7700BF2437BD46F0BD00BF9402002051
:10336C0094010020447F0008FC000020F0B5F9B067
:10337C0008AF01F02DF900F089FEFFF7F7FAFFF71F
:10338C00CFFA00F0E3FE00F017FFFFF76DFA012211
:10339C000821994802F0E9F800221021964802F021
:1033AC00E4F80121944802F0C9F80346012B07D137
:1033BC00924B6FF07F421A60914B924A1A6006E072
:1033CC008E4B904A1A608E4B6FF07F421A6002212E
:1033DC00894802F0B3F80346012B04D18A4B4FF411
:1033EC007F421A6003E0884B4FF6FF721A60FEF7BB
:1033FC00D9F94FF47A7001F04DF9FEF777FA0A20FB
:10340C0001F048F92320FFF773FA052001F042F987
:10341C006420FFF7C9F8FEF7BFFC4FF480517B48DE
:10342C0002F08CF8034687F8BF3197F8BF31012BB7
:10343C0003D1774B01221A7002E0754B00221A70EF
:10344C00744800F0C9FD0346734A1360734800F0DA
:10345C00C3FD0346724A1360724800F0BDFD03467B
:10346C00714A1360714800F0B7FD0346704A13604F
:10347C00704800F0B1FD03466F4A13606F4800F0CE
:10348C00ABFD03466E4A13606E4800F0A5FD034683
:10349C006D4A13606D496E4800F0B8FD5E4B1B68B9
:1034AC006C4A13605E4B1B686B4A13605E4B1B6867
:1034BC006A4A13605E4B1B68694A13605E4B1B685B
:1034CC00684A13605E4B1B68674A13605E4B1B684F
:1034DC00664A13605D49664803F0E6FF4E4B1B6875
:1034EC00042B03D94C4B1B68322B50D9614B1B68F6
:1034FC00494A1360604B1B68494A13605F4B1B6859
:10350C00494A13605E4B1B68494A13605D4B1B684C
:10351C00494A13605C4B1B68494A13605B4B1B6840
:10352C00494A13605A49494803F0BEFF394800F034
:10353C0081FD394B1B681946364800F0FDFC384BB1
:10354C001B681946354800F0F7FC374B1B681946C9
:10355C00344800F0F1FC364B1B681946334800F038
:10356C00EBFC354B1B681946324800F0E5FC344B3C
:10357C001B681946314800F0DFFC334B1B681946B9
:10358C00304800F0D9FC3149314800F0FDFC224BA9
:10359C001B68384A1360224B1B68374A1360224B56
:1035AC001B68364A1360224B1B68354A1360224B4A
:1035BC001B68344A1360224B1B68334A1360224B3E
:1035CC001B68324A13602149314803F06DFF3149C1
:1035DC002F48FCF795FD0346002B02D1FDF79AFB13
:1035EC0063E02D492A48FCF78BFD0346002B55D18F
:1035FC00FDF719FE59E000BF000C0140000000204F
:10360C000400002000FFFF0008000020000801401B
:10361C000F01002000FC00088C05002004FC0008B1
:10362C009005002008FC0008940500200CFC000804
:10363C009805002010FC00089C05002014FC0008D4
:10364C00A005002018FC0008A4050020A8050020F7
:10365C001CFC0008680500206C050020700500208B
:10366C0074050020780500207C05002080050020D2
:10367C0084050020100000201400002018000020F9
:10368C001C00002020000020240000202800002026
:10369C002C000020787F0008807F0008A14BA24AF4
:1036AC001A6000221A71FDF735FB002302930023E8
:1036BC0001930023009340F2BF3340F28F1240F28B
:1036CC00BF310020FEF7B6F90023029300230193CB
:1036DC000023009340F2BE3340F28F1240F2BE3111
:1036EC000020FEF7A7F90023029300230193002387
:1036FC00009340F2BD3340F28F1240F2BD310020F6
:10370C00FEF798F900230293002301930023009302
:10371C004FF46F7340F28F124FF46F710020FEF76D
:10372C0089F900230293002301930023009340F2B4
:10373C00BB3340F28F1240F2BB310020FEF77AF916
:10374C0000230293002301930023009340F2BA3329
:10375C0040F28F1240F2BA310020FEF76BF90023D1
:10376C000293002301930023009340F2B93340F2FB
:10377C008F1240F2B9310020FEF75CF9002302935E
:10378C0000230193002300934FF46E7340F28F12C9
:10379C004FF46E710020FEF74DF9644B01221A7044
:1037AC0000BF634B9B6803F08003002BF9D1604B87
:1037BC001B685F4A23F0400313605E4B1B685D4A35
:1037CC0023F0010313602320FFF7D0F9FFF74EFA23
:1037DC00FFF7E0FB574B1B68564A43F0010313609D
:1037EC00534B1B68524A43F0400313602320FFF7EE
:1037FC00A1F9514B01221A70504B1B78DBB2002BF4
:10380C00CED04D4B1B78DBB2002BC9D04B4B0022DA
:10381C001A70494B00221A70494B1B7883F0010334
:10382C00DBB2002B61D000BF464B9B6803F08003DA
:10383C00002BF9D1434B1B68424A23F04003136021
:10384C00414B1B68404A23F0010313603F4B1B683C
:10385C003E4A23F0010313602420FFF787F90E2062
:10386C00FFF784F90F20FFF781F9394BDB68384AF1
:10387C0083F40053D360FDF78DF8062000F04BFC69
:10388C00FCF796FC062000F046FCFCF719FE06201F
:10389C0000F041FCFCF778FF062000F03CFC062011
:1038AC0000F039FC00BF224B9B6803F08003002B17
:1038BC00F9D1254B1B68244A43F001031360234BB9
:1038CC001B68224A43F0010313601E4B1B681D4A00
:1038DC0043F0400313602420FFF72CF90E20FFF770
:1038EC0029F90F20FFF726F95AE74FF40061194820
:1038FC0001F024FE034687F8BE314FF48051154881
:10390C0001F01CFE034687F8BD3197F8BE31012B40
:10391C0024D197F8BD31002B20D10F4B00221A7007
:10392C00DBE200BF2C0000204164614667050020EB
:10393C000030014030000240F9000020F800002067
:10394C000F010020003800404400024058000240A3
:10395C0000100140000801401101002097F8BE3111
:10396C00002B7FF41DAF97F8BD31002B7FF418AFFF
:10397C0097F8BE2197F8BD319A427FF411AFAD4B49
:10398C001B7883F00103DBB2002B00F0A082AA4B62
:10399C001B78002B14BF01230023DBB283F001033F
:1039AC00DBB203F00103DAB2A34B1A70A34B1B7802
:1039BC000133A34A127893FBF2F101FB02F29B1A3A
:1039CC00DAB29E4B1A709F4B1B7883F00103DBB26B
:1039DC00002B00F0D580994B1B781A469A4B53F864
:1039EC0022309A4A1360954B1B781A46984B53F821
:1039FC002230984A1360914B1B781A46964B53F819
:103A0C002230964A13608D4B1B781A46944B53F810
:103A1C002230944A1360894B1B781A46924B53F808
:103A2C002230924A1360854B1B781A46904B53F800
:103A3C002230904A1360814B1B781A468E4B53F8F8
:103A4C0022308E4A13607D4B1B781A4613469B001E
:103A5C0013448B4A134419468A4803F025FD7B4BCB
:103A6C001B68894A13607B4B1B68884A13607B4B2D
:103A7C001B68874A13607B4B1B68864A13607B4B21
:103A8C001B68854A13607B4B1B68844A13607B4B15
:103A9C001B68834A13607B49824803F005FDFDF7E0
:103AAC0039F9052000F037FBFEF784FA052000F009
:103ABC0032FB784B1B689BB21846FEF7ACFC05201A
:103ACC0000F029FB744B1B689BB21846FEF7C6FC32
:103ADC00052000F020FB714B1B689BB21846FEF7CB
:103AEC00D9FC052000F017FB674B1B689BB21846EE
:103AFC00FEF7ECFC052000F00EFB644B1B689BB240
:103B0C001846FEF7FDFC052000F005FB604B1B681A
:103B1C009BB21846FEF708FD052000F0FCFA62483F
:103B2C0000F088FA494B1B6819465F4800F004FA0C
:103B3C00484B1B6819465D4800F0FEF9474B1B6863
:103B4C0019465B4800F0F8F9464B1B681946594872
:103B5C0000F0F2F9454B1B681946574800F0ECF998
:103B6C00444B1B681946554800F0E6F9434B1B685B
:103B7C001946534800F0E0F94249524800F004FA63
:103B8C00062000F0C8FA00214FF47F40FEF789F9B7
:103B9C00002307938C23069304230593012304939A
:103BAC00002303930023029301230193002300932A
:103BBC000023002202210020FEF738F8424B07F5C3
:103BCC00D2741D460FCD0FC495E803002060043459
:103BDC00218007F5D2731846FEF74AF9062000F04B
:103BEC009AFA00216FF07F40FEF75BF900230793F0
:103BFC00AA23069304230593012304930023039320
:103C0C00002302930123019300230093002300223D
:103C1C0001210020FEF70AF807F5E073A3F5C27343
:103C2C002A4A1C4615460FCD0FC40FCD0FC40FCD1D
:103C3C000FC44DE0110100201001002012010020E2
:103C4C000E0000200D000020A88000088C0500202C
:103C5C00C080000890050020D88000089405002042
:103C6C00F080000898050020088100089C050020C1
:103C7C0020810008A005002038810008A405002040
:103C8C0050810008A805002010000020140000201E
:103C9C00180000201C000020200000202400002020
:103CAC00280000202C00002000FC000804FC000868
:103CBC0008FC00080CFC000810FC000814FC0008B0
:103CCC0018FC00081CFC0008E87F000800800008B5
:103CDC002B68236007F13C031846FEF7C9F8062051
:103CEC0000F019FA00230793C323069304230593CA
:103CFC0001230493002303930023029301230193D4
:103D0C00002300930023002201210020FDF78EFFE9
:103D1C0007F5E073A3F5A873704A1C4615460FCD42
:103D2C000FC40FCD0FC40FCD0FC42B68236007F148
:103D3C0070031846FEF79CF8062000F0ECF90023FF
:103D4C000793FA230693042305930123049300237A
:103D5C000393002302930123019300230093002378
:103D6C00002201210020FDF761FF07F5E073A3F5A8
:103D7C00DA735B4A1C4615460FCD0FC40FCD0FC42A
:103D8C0095E80F0007C4238002341B0C237007F145
:103D9C000C031846FEF76CF8062000F0BCF9002165
:103DAC005048FEF77EF80023079340F21313069356
:103DBC00042305930123049300230393002302930C
:103DCC0001230193002300930023002201210020F2
:103DDC00FDF72CFF444B1B687B60444B1B68444A2B
:103DEC0012684449096844480068444C2468444DAE
:103DFC002D6807F1A406DFF80CC1C7F800C0D7F88E
:103E0C0000C0CDF818C0059504940390029101925E
:103E1C0000937B683C4A8021304603F0B5FA07F1E9
:103E2C00A4031846FEF724F8062000F074F9374B6B
:103E3C001B7883F00103DBB2002B45D000214FF43B
:103E4C007F40FEF72EF8002307934FF496730693EA
:103E5C00042305930123049300230393002302936B
:103E6C000123019300230093002300220121002051
:103E7C00FDF7DCFE264B1B687B60264B1B68264A35
:103E8C0012682649096826480068264C2468264D85
:103E9C002D6807F59276DFF894C0C7F800C0D7F804
:103EAC0000C0CDF818C005950494039002910192BE
:103EBC0000937B681E4A8021304603F065FA07F5B3
:103ECC0092731846FDF7D4FF782000F024F9194BB3
:103EDC0001221A700D4B00221A7061E43480000824
:103EEC006880000800FFFF00680500206C050020BA
:103EFC007005002074050020780500207C0500204A
:103F0C008005002084050020887F00080D0000201B
:103F1C008C050020900500209405002098050020B9
:103F2C009C050020A0050020A4050020A805002069
:103F3C00B87F000811010020B0B584B000AF7860E4
:103F4C0039607B680E4A934203D37B680D4A9342D7
:103F5C0001D9012310E000F0DDFF3B6800221C4674
:103F6C00154622462B467968022000F063FF034673
:103F7C00FB7300F0F5FFFB7B18461037BD46B0BD58
:103F8C0000FC0008FFFF0008B0B584B000AF7860FB
:103F9C0039603868FCF7BEF80346042B01D90123BD
:103FAC0015E00023BB603B681B68BB6000F0B2FFF0
:103FBC00BB6800221C46154622462B467968022017
:103FCC0000F038FF0346FB7300F0CAFFFB7B18467A
:103FDC001037BD46B0BD000080B483B000AF786030
:103FEC007B68084A934203D37B68074A934202D901
:103FFC004FF0FF3301E07B681B6818460C37BD4659
:10400C0080BC704700FC0008FFFF000880B485B03E
:10401C0000AF786039607B681B68FB60FA683B68AE
:10402C001A603B68043300221A7000BF1437BD4677
:10403C0080BC704780B588B000AF78607B68114A4F
:10404C00934203D37B68104A934201D9012314E0B5
:10405C0000F060FF0023FB607B687B610123BB6188
:10406C0007F1080207F10C031146184601F03AF863
:10407C000346FB7700F074FFFB7F18462037BD46E4
:10408C0080BD00BF00FC0008FFFF000880B590B0A9
:10409C0000AF07F1180328220021184603F0BAF9E3
:1040AC003B1D00221A605A609A60DA601A61012383
:1040BC00BB614FF48033FB6100233B620123BB6285
:1040CC0002237B634FF48033BB634FF4E013FB6339
:1040DC0007F11803184601F083FA0346002B01D0B0
:1040EC0000F02EF80F237B600223BB600023FB60E3
:1040FC004FF480633B6100237B613B1D022118461A
:10410C0001F0F0FC0346002B01D000F019F800BFC1
:10411C004037BD4680BD80B584B000AF786000F0FC
:10412C00AFFAF86000BF00F0ABFA0246FB68D31A96
:10413C007A689A42F7D800BF00BF1037BD4680BDE1
:10414C0080B400AF72B600BFFEE7000080B500AFD0
:10415C00174B184A1A60164B4FF482725A60144B64
:10416C0000229A60124B0022DA60114B02221A6173
:10417C000F4B01225A610E4B4FF400729A610C4B9B
:10418C001022DA610A4B00221A62094B00225A6291
:10419C00074B00229A62064B0A22DA62044801F0AD
:1041AC0011FE0346002B01D0FFF7CAFF00BF80BDF4
:1041BC00E00500200030014080B500AF164B174AD7
:1041CC001A60154B00225A60134B4FF480629A60B0
:1041DC00114B0022DA60104B02221A610E4B0122A5
:1041EC005A610D4B4FF400729A610B4B00221A620C
:1041FC00094B00225A62084B00229A62064B0A2293
:10420C00DA62054801F0DEFD0346002B01D0FFF712
:10421C0097FF00BF80BD00BF38060020003800406B
:10422C0080B58AB000AF786007F1180300221A60DD
:10423C005A609A60DA607B681B686B4A934276D14D
:10424C006A4B9B69694A43F480539361674B9B6942
:10425C0003F480537B617B69644B9B69634A43F035
:10426C0004039361614B9B6903F004033B613B695D
:10427C002023BB610223FB6100233B6203237B628F
:10428C0007F1180319465A4800F0D4FF4023BB61CC
:10429C000023FB6101233B6203237B6207F11803BC
:1042AC001946534800F0C6FF8023BB610223FB6113
:1042BC0000233B6203237B6207F1180319464C4829
:1042CC0000F0B8FF1023BB610123FB6100233B62AC
:1042DC0003237B6207F118031946454800F0AAFF37
:1042EC00444B454A1A60434B10225A60414B002202
:1042FC009A60404B8022DA603E4B00221A613D4BA3
:10430C0000225A613B4B00229A613A4B0022DA613F
:10431C00384800F0F1FA0346002B01D0FFF710FFEC
:10432C007B68344A9A64334A7B68536257E07B68F3
:10433C001B68324A934252D12C4BDB692B4A43F413
:10434C008043D361294BDB6903F48043FB60FB683A
:10435C00264B9B69254A43F008039361234B9B69C9
:10436C0003F00803BB60BB684FF42043BB61002320
:10437C00FB6100233B6207F118031946204800F04B
:10438C0059FF204B204A1A601E4B00225A601D4BCD
:10439C0000229A601B4B8022DA601A4B00221A61B1
:1043AC00184B00225A61174B00229A61154B0022C0
:1043BC00DA61144800F0A0FA0346002B01D0FFF795
:1043CC00BFFE7B680F4ADA640E4A7B685362002298
:1043DC000021242000F059FA242000F072FA00BFCA
:1043EC002837BD4680BD00BF0030014000100240A0
:1043FC0000080140900600203000024000380040C8
:10440C00000C0140D40600204400024080B485B06A
:10441C0000AF154B9B69144A43F001039361124B97
:10442C009B6903F00103BB60BB680F4BDB690E4A51
:10443C0043F08053D3610C4BDB6903F080537B60FA
:10444C007B680A4B5B68FB60FB6823F0E063FB60F6
:10445C00FB6843F00073FB60044AFB68536000BFC9
:10446C001437BD4680BC704700100240000001406C
:10447C0080B400AFFEE780B400AFFEE780B400AFBD
:10448C00FEE780B400AFFEE780B400AFFEE780B477
:10449C0000AF00BFBD4680BC704780B400AF00BF0A
:1044AC00BD4680BC704780B400AF00BFBD4680BC29
:1044BC00704780B500AF00F0D1F800BF80BD0000A0
:1044CC0080B500AF024800F081FB00BF80BD00BF8B
:1044DC009006002080B500AF024800F077FB00BFCB
:1044EC0080BD00BFD406002080B500AF024802F0AA
:1044FC00CBFB00BF80BD00BF3806002080B500AFED
:10450C00114B1B78002B19D0104802F07DFB0F4883
:10451C0002F096FA0E4B1B690D4A43F4804313616B
:10452C000B4B1B690A4A23F480431361074801F0C3
:10453C0049FCEB220749054802F0B8F84FF400603B
:10454C0001F02CF800BF80BD670500203806002064
:10455C00001002400003002080B586B000AF7860E8
:10456C00144A154BD31A7B617B693B61134B1B6857
:10457C00002B02D1114B124A1A60104B1A687B683F
:10458C0013443A699A4207D202F062FF03460C22A6
:10459C001A604FF0FF3309E0084B1B68FB60074BB8
:1045AC001A687B681344054A1360FB681846183771
:1045BC00BD4680BD005000200004000018070020FC
:1045CC008808002080B400AF00BFBD4680BC704797
:1045DC0080B500AF084B1B68074A43F0100313600B
:1045EC00032000F047F90F2000F008F8FFF70EFF4A
:1045FC000023184680BD00BF0020024080B582B069
:10460C0000AF7860124B1A68124B1B7819464FF4A6
:10461C007A73B3FBF1F3B2FBF3F3184600F05FF9D6
:10462C000346002B01D001230EE07B680F2B0AD828
:10463C00002279684FF0FF3000F027F9064A7B68BA
:10464C001360002300E0012318460837BD4680BDE7
:10465C00340000203C0000203800002080B400AF63
:10466C00054B1B781A46054B1B681344034A136011
:10467C0000BFBD4680BC70473C0000201C070020DA
:10468C0080B400AF024B1B681846BD4680BC704717
:10469C001C07002080B584B000AF7860FFF7F0FFF6
:1046AC00B8607B68FB60FB68B3F1FF3F05D00A4B39
:1046BC001B781A46FB681344FB6000BFFFF7E0FF52
:1046CC000246BB68D31AFA689A42F7D800BF00BFFB
:1046DC001037BD4680BD00BF3C00002080B485B0C3
:1046EC0000AF78607B6803F00703FB600C4BDB6862
:1046FC00BB60BA684FF6FF031340BB60FB681A023D
:10470C00BB68134343F0BF6343F40033BB60044AFC
:10471C00BB68D36000BF1437BD4680BC704700BF78
:10472C0000ED00E080B400AF044BDB681B0A03F023
:10473C0007031846BD4680BC704700BF00ED00E083
:10474C0080B483B000AF0346FB7197F90730002BA0
:10475C000BDBFB7903F01F02064997F907305B0965
:10476C00012000FA02F241F8232000BF0C37BD46AD
:10477C0080BC704700E100E080B483B000AF03461A
:10478C003960FB7197F90730002B0ADB3B68DAB212
:10479C000C4997F907301201D2B20B4483F800236D
:1047AC000AE03B68DAB20849FB7903F00F03043BDB
:1047BC001201D2B20B441A7600BF0C37BD4680BC36
:1047CC00704700BF00E100E000ED00E080B489B06C
:1047DC0000AFF860B9607A60FB6803F00703FB6117
:1047EC00FB69C3F10703042B28BF0423BB61FB69DE
:1047FC000433062B02D9FB69033B00E000237B61E9
:10480C004FF0FF32BB6902FA03F3DA43BB681A407C
:10481C007B699A404FF0FF317B6901FA03F3D9436E
:10482C007B680B40134318462437BD4680BC704749
:10483C0080B582B000AF78607B68013BB3F1807FBC
:10484C0001D301230FE00A4A7B68013B53600F211F
:10485C004FF0FF30FFF790FF054B00229A60044B9E
:10486C0007221A60002318460837BD4680BD00BFDA
:10487C0010E000E080B582B000AF78607868FFF798
:10488C002DFF00BF0837BD4680BD80B586B000AF98
:10489C000346B9607A60FB7300237B61FFF742FF2C
:1048AC0078617A68B9687869FFF790FF024697F9E2
:1048BC000F3011461846FFF75FFF00BF1837BD4693
:1048CC0080BD80B582B000AF0346FB7197F907300D
:1048DC001846FFF735FF00BF0837BD4680BD80B5D1
:1048EC0082B000AF78607868FFF7A2FF03461846E5
:1048FC000837BD4680BD000080B485B000AF78603D
:10490C000023FB607B68002B01D1012343E07B6813
:10491C001B681A46224B1344224AA2FB03231B0991
:10492C009A007B681A647B681F4ADA637B680222F0
:10493C0083F821207B681B681B68FB60FB6823F4F1
:10494C007F5323F03003FB607B685A687B689B685D
:10495C001A437B68DB681A437B681B691A437B68C4
:10496C005B691A437B689B691A437B68DB69134359
:10497C00FA681343FB607B681B68FA681A607B68F3
:10498C0000229A637B68012283F821207B68002235
:10499C0083F82020002318461437BD4680BC70478E
:1049AC00F8FFFDBFCDCCCCCC0000024080B586B06A
:1049BC0000AFF860B9607A603B600023FB75FB6860
:1049CC0093F82030012B01D102234AE0FB6801222D
:1049DC0083F82020FB6893F82130012B3AD1FB6837
:1049EC00022283F82120FB6800229A63FB681B6873
:1049FC001A68FB681B6822F001021A603B687A682F
:104A0C00B968F86800F0E8F9FB68DB6A002B08D09D
:104A1C00FB681B681A68FB681B6842F00E021A6080
:104A2C000FE0FB681B681A68FB681B6822F0040225
:104A3C001A60FB681B681A68FB681B6842F00A0264
:104A4C001A60FB681B681A68FB681B6842F001025D
:104A5C001A6005E0FB68002283F820200223FB7516
:104A6C00FB7D18461837BD4680BD80B485B000AFBD
:104A7C0078600023FB737B6893F82130022B08D0FD
:104A8C007B6804229A637B68002283F82020012330
:104A9C0020E07B681B681A687B681B6822F00E029A
:104AAC001A607B681B681A687B681B6822F001021D
:104ABC001A607B681A6C7B68DB6B012101FA02F2CD
:104ACC005A607B68012283F821207B68002283F8DE
:104ADC002020FB7B18461437BD4680BC7047000075
:104AEC0080B584B000AF78600023FB737B6893F8CB
:104AFC002130022B05D07B6804229A630123FB73BF
:104B0C0051E07B681B681A687B681B6822F00E02F8
:104B1C001A607B681B681A687B681B6822F00102AC
:104B2C001A607B681B68224A934229D07B681B68F9
:104B3C00204A934222D07B681B681F4A93421AD0AA
:104B4C007B681B681D4A934212D07B681B681C4A09
:104B5C0093420AD07B681B681A4A934202D14FF4E5
:104B6C0080130EE04FF080730BE04FF4803308E0BD
:104B7C004FF4805305E04FF4807302E0102300E003
:104B8C000123114A53607B68012283F821207B6842
:104B9C00002283F820207B685B6B002B03D07B68A2
:104BAC005B6B78689847FB7B18461037BD4680BD19
:104BBC00080002401C000240300002404400024049
:104BCC00580002406C0002400000024080B584B0E6
:104BDC0000AF78607B68DB6B1B68FB607B681B68D5
:104BEC001B68BB607B681B6C04229A40FB681340FB
:104BFC00002B4FD0BB6803F00403002B4AD07B681A
:104C0C001B681B6803F02003002B07D17B681B6813
:104C1C001A687B681B6822F004021A607B681B68A8
:104C2C00664A934229D07B681B68654A934222D01E
:104C3C007B681B68634A93421AD07B681B68624A84
:104C4C00934212D07B681B68604A93420AD07B68FF
:104C5C001B685F4A934202D14FF480030EE04FF081
:104C6C0080630BE04FF4802308E04FF4804305E0B1
:104C7C004FF4806302E0402300E00423554A536064
:104C8C007B68DB6A002B00F094807B68DB6A7868B9
:104C9C0098478EE07B681B6C02229A40FB6813409D
:104CAC00002B56D0BB6803F00203002B51D07B685D
:104CBC001B681B6803F02003002B0BD17B681B685F
:104CCC001A687B681B6822F00A021A607B68012252
:104CDC0083F821207B681B68384A934229D07B6873
:104CEC001B68374A934222D07B681B68354A934233
:104CFC001AD07B681B68344A934212D07B681B68BD
:104D0C00324A93420AD07B681B68314A934202D1E3
:104D1C004FF400130EE04FF000730BE04FF4003330
:104D2C0008E04FF4005305E04FF4007302E0202339
:104D3C0000E00223274A53607B68002283F820207E
:104D4C007B689B6A002B34D07B689B6A7868984799
:104D5C002FE07B681B6C08229A40FB681340002BE9
:104D6C0028D0BB6803F00803002B23D07B681B689A
:104D7C001A687B681B6822F00E021A607B681A6C3A
:104D8C007B68DB6B012101FA02F25A607B6801221D
:104D9C009A637B68012283F821207B68002283F8C8
:104DAC0020207B681B6B002B04D07B681B6B786806
:104DBC00984700BF00BF1037BD4680BD08000240B9
:104DCC001C000240300002404400024058000240E7
:104DDC006C0002400000024080B485B000AFF86067
:104DEC00B9607A603B60FB681A6CFB68DB6B012175
:104DFC0001FA02F25A60FB681B683A685A60FB6859
:104E0C005B68102B08D1FB681B687A689A60FB689A
:104E1C001B68BA68DA6007E0FB681B68BA689A60BE
:104E2C00FB681B687A68DA6000BF1437BD4680BC2B
:104E3C0070470000F0B587B000AFF860B960C7E903
:104E4C0000230123FB750023BB7500237B752F4BBF
:104E5C001B7E012B01D1022354E02C4B01221A762C
:104E6C004CF2503000F0A8F80346FB75FB7D002B8C
:104E7C0044D1FB68012B02D101237B7507E0FB6851
:104E8C00022B02D102237B7501E004237B750023E6
:104E9C00BB752DE0BB7D5A00BB6802EB030CBB7DE0
:104EAC001901D7E90023C1F12006A1F1200022FA53
:104EBC0001F403FA06F6344323FA00F0044323FA10
:104ECC0001F5A3B21946604600F05AF84CF2503086
:104EDC0000F072F80346FB750D4B1B690C4A23F06E
:104EEC0001031361FB7D002B07D1BB7D0133BB7527
:104EFC00BA7D7B7D9A42CDD300E000BF034B0022EC
:104F0C001A76FB7D18461C37BD46F0BD20070020E5
:104F1C000020024080B483B000AF0023FB710D4B26
:104F2C001B6903F08003002B0DD00A4B0A4A5A6010
:104F3C00084B0A4A5A60074B1B6903F08003002B8D
:104F4C0001D00123FB71FB7918460C37BD4680BCA0
:104F5C00704700BF0020024023016745AB89EFCDAD
:104F6C0080B400AF054B1B69044A43F08003136106
:104F7C0000231846BD4680BC704700BF002002408D
:104F8C0080B483B000AF78600B467B80084B002266
:104F9C00DA61084B1B69074A43F0010313617B6814
:104FAC007A881A8000BF0C37BD4680BC704700BFA2
:104FBC00200700200020024080B584B000AF78604C
:104FCC00FFF75EFBF86010E07B68B3F1FF3F0CD09D
:104FDC007B68002B07D0FFF753FB0246FB68D31A04
:104FEC007A689A4201D2032325E0154BDB6803F063
:104FFC000103002BE8D1124BDB6803F02003002BDC
:10500C0002D00F4B2022DA600D4BDB6803F010034B
:10501C00002B0BD10A4BDB6903F00103002B05D1EC
:10502C00074BDB6803F00403002B03D000F00AF8F5
:10503C00012300E0002318461037BD4680BD00BF99
:10504C000020024080B483B000AF00237B60234B70
:10505C00DB6803F01003002B09D0214BDB6943F014
:10506C0002031F4AD3617B6843F010037B601B4B28
:10507C00DB6803F00403002B09D0194BDB6943F008
:10508C000103174AD3617B6843F004037B60134B25
:10509C00DB6903F00103002B0BD0114BDB6943F0F0
:1050AC0004030F4AD3610D4BDB690C4A23F0010357
:1050BC00D3617B6840F20112934206D1074BDB6946
:1050CC00064A23F00103D36102E0044A7B68D360F3
:1050DC0000BF0C37BD4680BC704700BF00200240AB
:1050EC002007002080B584B000AF786039600123C0
:1050FC00FB730023BB602F4B1B7E012B01D10223C2
:10510C0053E02C4B01221A767B681B68022B16D1BC
:10511C004CF25030FFF750FF0346002B41D10120D9
:10512C0000F04CF84CF25030FFF746FF0346FB738F
:10513C00214B1B69204A23F00403136131E04CF22C
:10514C005030FFF739FF0346002B2AD13B684FF054
:10515C00FF321A607B689B68BB6019E0B86800F08E
:10516C0049F84CF25030FFF727FF0346FB73124B04
:10517C001B69114A23F002031361FB7B002B03D044
:10518C003B68BA681A600CE0BB6803F58063BB60CF
:10519C007B68DB689A027B689B681344BA689A4206
:1051AC00DCD3044B00221A76FB7B18461037BD4625
:1051BC0080BD00BF200700200020024080B483B0D7
:1051CC0000AF7860094B0022DA61094B1B69084A71
:1051DC0043F004031361064B1B69054A43F040037B
:1051EC00136100BF0C37BD4680BC70472007002000
:1051FC000020024080B483B000AF78600B4B0022DB
:10520C00DA610B4B1B690A4A43F002031361084A2B
:10521C007B685361064B1B69054A43F040031361DD
:10522C0000BF0C37BD4680BC704700BF2007002074
:10523C000020024080B48BB000AF7860396000234E
:10524C007B6200233B6269E101227B6A02FA03F371
:10525C00FB613B681B68FA691340BB61BA69FB6967
:10526C009A4240F058813B685B689A4A93425ED000
:10527C00984A934275D8984A934258D0964A93428A
:10528C006FD8964A934252D0944A934269D8944A22
:10529C0093424CD0924A934263D8924A934246D05E
:1052AC00904A93425DD8122B2AD8122B59D801A2BE
:1052BC0052F823F03B5300081553000827530008FD
:1052CC00695300086F5300086F5300086F530008B0
:1052DC006F5300086F5300086F5300086F5300089A
:1052EC006F5300086F5300086F5300086F5300088A
:1052FC006F5300086F5300081D530008315300080A
:10530C00794A934213D02CE03B68DB683B6229E07E
:10531C003B68DB6804333B6224E03B68DB680833A2
:10532C003B621FE03B68DB680C333B621AE03B6876
:10533C009B68002B02D104233B6213E03B689B6803
:10534C00012B05D108233B627B68FA691A6109E0DD
:10535C0008233B627B68FA695A6103E000233B62D5
:10536C0000E000BFBB69FF2B01D87B6801E07B68C4
:10537C0004337B61BB69FF2B02D87B6A9B0002E084
:10538C007B6A083B9B003B617B691A680F213B6978
:10539C0001FA03F3DB431A40396A3B6901FA03F360
:1053AC001A437B691A603B685B6803F08053002BDF
:1053BC0000F0B1804D4B9B694C4A43F00103936163
:1053CC004A4B9B6903F00103BB60BB68484A7B6A8C
:1053DC009B08023352F82330FB607B6A03F0030313
:1053EC009B000F2202FA03F3DB43FA681340FB60C5
:1053FC007B68404A934213D07B683F4A93420DD05E
:10540C007B683E4A934207D07B683D4A934201D168
:10541C00032306E0042304E0022302E0012300E05E
:10542C0000237A6A02F0030292009340FA68134355
:10543C00FB602F497B6A9B080233FA6841F82320F2
:10544C003B685B6803F48033002B06D02D4B1A6845
:10545C002C49BB6913430B6006E02A4B1A68BB69E5
:10546C00DB43284913400B603B685B6803F4003353
:10547C00002B06D0234B5A682249BB6913434B605F
:10548C0006E0204B5A68BB69DB431E4913404B6056
:10549C003B685B6803F48013002B06D0194B9A68A9
:1054AC001849BB6913438B6006E0164B9A68BB69BD
:1054BC00DB43144913408B603B685B6803F40013B7
:1054CC00002B21D00F4BDA680E49BB691343CB601C
:1054DC0021E000BF0000321000003110000022104B
:1054EC0000002110000012100000111000100240EA
:1054FC000000014000080140000C01400010014078
:10550C0000140140000401400B4BDA68BB69DB431B
:10551C0009491340CB607B6A01337B623B681A6894
:10552C007B6A22FA03F3002B7FF48EAE00BF00BF20
:10553C002C37BD4680BC70470004014080B485B058
:10554C0000AF78600B467B807B689A687B88134041
:10555C00002B02D00123FB7301E00023FB73FB7BC8
:10556C0018461437BD4680BC704780B483B000AF7A
:10557C0078600B467B8013467B707B78002B03D0C6
:10558C007A887B681A6103E07B881A047B681A614D
:10559C0000BF0C37BD4680BC7047000080B582B0A0
:1055AC0000AF0346FB80084B5A69FB881340002B65
:1055BC0006D0054AFB885361FB88184600F006F8B4
:1055CC0000BF0837BD4680BD0004014080B483B0E5
:1055DC0000AF0346FB8000BF0C37BD4680BC704754
:1055EC0080B586B000AF78607B68002B01D10123B9
:1055FC0072E27B681B6803F00103002B00F08780CC
:10560C00924B5B6803F00C03042B0CD08F4B5B6844
:10561C0003F00C03082B12D18C4B5B6803F4803322
:10562C00B3F5803F0BD1894B1B6803F40033002B7F
:10563C006CD07B685B68002B68D101234CE27B68E3
:10564C005B68B3F5803F06D1804B1B687F4A43F4FF
:10565C00803313602EE07B685B68002B0CD17B4B96
:10566C001B687A4A23F480331360784B1B68774AA3
:10567C0023F4802313601DE07B685B68B3F5A02FD7
:10568C000CD1724B1B68714A43F4802313606F4B2F
:10569C001B686E4A43F4803313600BE06B4B1B6842
:1056AC006A4A23F480331360684B1B68674A23F4FF
:1056BC00802313607B685B68002B13D0FEF7E0FF40
:1056CC00386108E0FEF7DCFF02463B69D31A642B15
:1056DC0001D9032300E25D4B1B6803F40033002B5C
:1056EC00F0D014E0FEF7CCFF386108E0FEF7C8FFFD
:1056FC0002463B69D31A642B01D90323ECE1534BCB
:10570C001B6803F40033002BF0D100E000BF7B6872
:10571C001B6803F00203002B63D04C4B5B6803F057
:10572C000C03002B0BD0494B5B6803F00C03082BCC
:10573C001CD1464B5B6803F48033002B16D1434BD2
:10574C001B6803F00203002B05D07B681B69012B3F
:10575C0001D00123C0E13D4B1B6823F0F8027B68AC
:10576C005B69DB00394913430B603AE07B681B69CA
:10577C00002B20D0364B01221A60FEF781FF3861D6
:10578C0008E0FEF77DFF02463B69D31A022B01D9D4
:10579C000323A1E12D4B1B6803F00203002BF0D077
:1057AC002A4B1B6823F0F8027B685B69DB002749F6
:1057BC0013430B6015E0264B00221A60FEF760FFC6
:1057CC00386108E0FEF75CFF02463B69D31A022BF6
:1057DC0001D9032380E11D4B1B6803F00203002B4E
:1057EC00F0D17B681B6803F00803002B3AD07B6870
:1057FC009B69002B19D0174B01221A60FEF740FF52
:10580C00386108E0FEF73CFF02463B69D31A022BD5
:10581C0001D9032360E10D4B5B6A03F00203002BFB
:10582C00F0D0012000F0B0FA1CE00A4B00221A6004
:10583C00FEF726FF38610FE0FEF722FF02463B69B8
:10584C00D31A022B08D9032346E100BF00100240F3
:10585C000000424280044242924B5B6A03F0020316
:10586C00002BE9D17B681B6803F00403002B00F0CC
:10587C00A6800023FB758B4BDB6903F08053002B58
:10588C000DD1884BDB69874A43F08053D361854B3C
:10589C00DB6903F08053BB60BB680123FB75824B53
:1058AC001B6803F48073002B18D17F4B1B687E4A56
:1058BC0043F480731360FEF7E3FE386108E0FEF7F3
:1058CC00DFFE02463B69D31A642B01D9032303E1A3
:1058DC00754B1B6803F48073002BF0D07B68DB687E
:1058EC00012B06D16F4B1B6A6E4A43F00103136206
:1058FC002DE07B68DB68002B0CD16A4B1B6A694A74
:10590C0023F001031362674B1B6A664A23F00403FE
:10591C0013621CE07B68DB68052B0CD1614B1B6AA6
:10592C00604A43F0040313625E4B1B6A5D4A43F00A
:10593C00010313620BE05B4B1B6A5A4A23F0010311
:10594C001362584B1B6A574A23F0040313627B689B
:10595C00DB68002B15D0FEF793FE38610AE0FEF7EA
:10596C008FFE02463B69D31A41F28832934201D929
:10597C000323B1E04B4B1B6A03F00203002BEED068
:10598C0014E0FEF77DFE38610AE0FEF779FE024670
:10599C003B69D31A41F28832934201D903239BE02D
:1059AC00404B1B6A03F00203002BEED1FB7D012B55
:1059BC0005D13C4BDB693B4A23F08053D3617B68B8
:1059CC00DB69002B00F08780364B5B6803F00C031F
:1059DC00082B61D07B68DB69022B46D1334B00224C
:1059EC001A60FEF74DFE386108E0FEF749FE0246EC
:1059FC003B69D31A022B01D903236DE0294B1B6899
:105A0C0003F00073002BF0D17B681B6AB3F5803F69
:105A1C0008D1244B5B6823F400327B689B682149D6
:105A2C0013434B601F4B5B6823F474127B68196A39
:105A3C007B685B6A0B431B4913434B601B4B012276
:105A4C001A60FEF71DFE386108E0FEF719FE0246EB
:105A5C003B69D31A022B01D903233DE0114B1B6880
:105A6C0003F00073002BF0D035E0104B00221A60CD
:105A7C00FEF706FE386108E0FEF702FE02463B69BF
:105A8C00D31A022B01D9032326E0064B1B6803F023
:105A9C000073002BF0D11EE07B68DB69012B07D172
:105AAC00012319E0001002400070004060004242E7
:105ABC000B4B5B68FB60FB6803F480327B681B6AF2
:105ACC009A4206D1FB6803F470127B685B6A9A42B7
